{
  "contracts/HOOTLES.sol": {
    "HOOTLES": {
      "abi": [
        {
          "inputs": [
            {
              "internalType": "string",
              "name": "_tokenName",
              "type": "string"
            },
            {
              "internalType": "string",
              "name": "_tokenSymbol",
              "type": "string"
            },
            {
              "internalType": "uint256",
              "name": "_cost",
              "type": "uint256"
            },
            {
              "internalType": "uint256",
              "name": "_maxSupply",
              "type": "uint256"
            },
            {
              "internalType": "uint256",
              "name": "_maxMintAmountPerTx",
              "type": "uint256"
            },
            {
              "internalType": "string",
              "name": "_hiddenMetadataUri",
              "type": "string"
            }
          ],
          "stateMutability": "nonpayable",
          "type": "constructor"
        },
        {
          "inputs": [],
          "name": "ApprovalCallerNotOwnerNorApproved",
          "type": "error"
        },
        {
          "inputs": [],
          "name": "ApprovalQueryForNonexistentToken",
          "type": "error"
        },
        {
          "inputs": [],
          "name": "ApprovalToCurrentOwner",
          "type": "error"
        },
        {
          "inputs": [],
          "name": "ApproveToCaller",
          "type": "error"
        },
        {
          "inputs": [],
          "name": "BalanceQueryForZeroAddress",
          "type": "error"
        },
        {
          "inputs": [],
          "name": "InvalidQueryRange",
          "type": "error"
        },
        {
          "inputs": [],
          "name": "MintToZeroAddress",
          "type": "error"
        },
        {
          "inputs": [],
          "name": "MintZeroQuantity",
          "type": "error"
        },
        {
          "inputs": [],
          "name": "OwnerQueryForNonexistentToken",
          "type": "error"
        },
        {
          "inputs": [],
          "name": "TransferCallerNotOwnerNorApproved",
          "type": "error"
        },
        {
          "inputs": [],
          "name": "TransferFromIncorrectOwner",
          "type": "error"
        },
        {
          "inputs": [],
          "name": "TransferToNonERC721ReceiverImplementer",
          "type": "error"
        },
        {
          "inputs": [],
          "name": "TransferToZeroAddress",
          "type": "error"
        },
        {
          "inputs": [],
          "name": "URIQueryForNonexistentToken",
          "type": "error"
        },
        {
          "anonymous": false,
          "inputs": [
            {
              "indexed": true,
              "internalType": "address",
              "name": "owner",
              "type": "address"
            },
            {
              "indexed": true,
              "internalType": "address",
              "name": "approved",
              "type": "address"
            },
            {
              "indexed": true,
              "internalType": "uint256",
              "name": "tokenId",
              "type": "uint256"
            }
          ],
          "name": "Approval",
          "type": "event"
        },
        {
          "anonymous": false,
          "inputs": [
            {
              "indexed": true,
              "internalType": "address",
              "name": "owner",
              "type": "address"
            },
            {
              "indexed": true,
              "internalType": "address",
              "name": "operator",
              "type": "address"
            },
            {
              "indexed": false,
              "internalType": "bool",
              "name": "approved",
              "type": "bool"
            }
          ],
          "name": "ApprovalForAll",
          "type": "event"
        },
        {
          "anonymous": false,
          "inputs": [
            {
              "indexed": true,
              "internalType": "address",
              "name": "previousOwner",
              "type": "address"
            },
            {
              "indexed": true,
              "internalType": "address",
              "name": "newOwner",
              "type": "address"
            }
          ],
          "name": "OwnershipTransferred",
          "type": "event"
        },
        {
          "anonymous": false,
          "inputs": [
            {
              "indexed": true,
              "internalType": "address",
              "name": "from",
              "type": "address"
            },
            {
              "indexed": true,
              "internalType": "address",
              "name": "to",
              "type": "address"
            },
            {
              "indexed": true,
              "internalType": "uint256",
              "name": "tokenId",
              "type": "uint256"
            }
          ],
          "name": "Transfer",
          "type": "event"
        },
        {
          "inputs": [
            {
              "internalType": "address",
              "name": "to",
              "type": "address"
            },
            {
              "internalType": "uint256",
              "name": "tokenId",
              "type": "uint256"
            }
          ],
          "name": "approve",
          "outputs": [],
          "stateMutability": "nonpayable",
          "type": "function"
        },
        {
          "inputs": [
            {
              "internalType": "address",
              "name": "owner",
              "type": "address"
            }
          ],
          "name": "balanceOf",
          "outputs": [
            {
              "internalType": "uint256",
              "name": "",
              "type": "uint256"
            }
          ],
          "stateMutability": "view",
          "type": "function"
        },
        {
          "inputs": [],
          "name": "cost",
          "outputs": [
            {
              "internalType": "uint256",
              "name": "",
              "type": "uint256"
            }
          ],
          "stateMutability": "view",
          "type": "function"
        },
        {
          "inputs": [
            {
              "internalType": "uint256",
              "name": "tokenId",
              "type": "uint256"
            }
          ],
          "name": "explicitOwnershipOf",
          "outputs": [
            {
              "components": [
                {
                  "internalType": "address",
                  "name": "addr",
                  "type": "address"
                },
                {
                  "internalType": "uint64",
                  "name": "startTimestamp",
                  "type": "uint64"
                },
                {
                  "internalType": "bool",
                  "name": "burned",
                  "type": "bool"
                }
              ],
              "internalType": "struct IERC721A.TokenOwnership",
              "name": "",
              "type": "tuple"
            }
          ],
          "stateMutability": "view",
          "type": "function"
        },
        {
          "inputs": [
            {
              "internalType": "uint256[]",
              "name": "tokenIds",
              "type": "uint256[]"
            }
          ],
          "name": "explicitOwnershipsOf",
          "outputs": [
            {
              "components": [
                {
                  "internalType": "address",
                  "name": "addr",
                  "type": "address"
                },
                {
                  "internalType": "uint64",
                  "name": "startTimestamp",
                  "type": "uint64"
                },
                {
                  "internalType": "bool",
                  "name": "burned",
                  "type": "bool"
                }
              ],
              "internalType": "struct IERC721A.TokenOwnership[]",
              "name": "",
              "type": "tuple[]"
            }
          ],
          "stateMutability": "view",
          "type": "function"
        },
        {
          "inputs": [
            {
              "internalType": "uint256",
              "name": "tokenId",
              "type": "uint256"
            }
          ],
          "name": "getApproved",
          "outputs": [
            {
              "internalType": "address",
              "name": "",
              "type": "address"
            }
          ],
          "stateMutability": "view",
          "type": "function"
        },
        {
          "inputs": [],
          "name": "hiddenMetadataUri",
          "outputs": [
            {
              "internalType": "string",
              "name": "",
              "type": "string"
            }
          ],
          "stateMutability": "view",
          "type": "function"
        },
        {
          "inputs": [
            {
              "internalType": "address",
              "name": "owner",
              "type": "address"
            },
            {
              "internalType": "address",
              "name": "operator",
              "type": "address"
            }
          ],
          "name": "isApprovedForAll",
          "outputs": [
            {
              "internalType": "bool",
              "name": "",
              "type": "bool"
            }
          ],
          "stateMutability": "view",
          "type": "function"
        },
        {
          "inputs": [],
          "name": "maxMintAmountPerTx",
          "outputs": [
            {
              "internalType": "uint256",
              "name": "",
              "type": "uint256"
            }
          ],
          "stateMutability": "view",
          "type": "function"
        },
        {
          "inputs": [],
          "name": "maxSupply",
          "outputs": [
            {
              "internalType": "uint256",
              "name": "",
              "type": "uint256"
            }
          ],
          "stateMutability": "view",
          "type": "function"
        },
        {
          "inputs": [],
          "name": "merkleRoot",
          "outputs": [
            {
              "internalType": "bytes32",
              "name": "",
              "type": "bytes32"
            }
          ],
          "stateMutability": "view",
          "type": "function"
        },
        {
          "inputs": [
            {
              "internalType": "uint256",
              "name": "_mintAmount",
              "type": "uint256"
            }
          ],
          "name": "mint",
          "outputs": [],
          "stateMutability": "payable",
          "type": "function"
        },
        {
          "inputs": [
            {
              "internalType": "uint256",
              "name": "_mintAmount",
              "type": "uint256"
            },
            {
              "internalType": "address",
              "name": "_receiver",
              "type": "address"
            }
          ],
          "name": "mintForAddress",
          "outputs": [],
          "stateMutability": "nonpayable",
          "type": "function"
        },
        {
          "inputs": [],
          "name": "name",
          "outputs": [
            {
              "internalType": "string",
              "name": "",
              "type": "string"
            }
          ],
          "stateMutability": "view",
          "type": "function"
        },
        {
          "inputs": [],
          "name": "nftPerAddressLimit",
          "outputs": [
            {
              "internalType": "uint256",
              "name": "",
              "type": "uint256"
            }
          ],
          "stateMutability": "view",
          "type": "function"
        },
        {
          "inputs": [],
          "name": "owner",
          "outputs": [
            {
              "internalType": "address",
              "name": "",
              "type": "address"
            }
          ],
          "stateMutability": "view",
          "type": "function"
        },
        {
          "inputs": [
            {
              "internalType": "uint256",
              "name": "tokenId",
              "type": "uint256"
            }
          ],
          "name": "ownerOf",
          "outputs": [
            {
              "internalType": "address",
              "name": "",
              "type": "address"
            }
          ],
          "stateMutability": "view",
          "type": "function"
        },
        {
          "inputs": [],
          "name": "paused",
          "outputs": [
            {
              "internalType": "bool",
              "name": "",
              "type": "bool"
            }
          ],
          "stateMutability": "view",
          "type": "function"
        },
        {
          "inputs": [],
          "name": "renounceOwnership",
          "outputs": [],
          "stateMutability": "nonpayable",
          "type": "function"
        },
        {
          "inputs": [],
          "name": "revealed",
          "outputs": [
            {
              "internalType": "bool",
              "name": "",
              "type": "bool"
            }
          ],
          "stateMutability": "view",
          "type": "function"
        },
        {
          "inputs": [
            {
              "internalType": "address",
              "name": "from",
              "type": "address"
            },
            {
              "internalType": "address",
              "name": "to",
              "type": "address"
            },
            {
              "internalType": "uint256",
              "name": "tokenId",
              "type": "uint256"
            }
          ],
          "name": "safeTransferFrom",
          "outputs": [],
          "stateMutability": "nonpayable",
          "type": "function"
        },
        {
          "inputs": [
            {
              "internalType": "address",
              "name": "from",
              "type": "address"
            },
            {
              "internalType": "address",
              "name": "to",
              "type": "address"
            },
            {
              "internalType": "uint256",
              "name": "tokenId",
              "type": "uint256"
            },
            {
              "internalType": "bytes",
              "name": "_data",
              "type": "bytes"
            }
          ],
          "name": "safeTransferFrom",
          "outputs": [],
          "stateMutability": "nonpayable",
          "type": "function"
        },
        {
          "inputs": [
            {
              "internalType": "address",
              "name": "operator",
              "type": "address"
            },
            {
              "internalType": "bool",
              "name": "approved",
              "type": "bool"
            }
          ],
          "name": "setApprovalForAll",
          "outputs": [],
          "stateMutability": "nonpayable",
          "type": "function"
        },
        {
          "inputs": [
            {
              "internalType": "uint256",
              "name": "_cost",
              "type": "uint256"
            }
          ],
          "name": "setCost",
          "outputs": [],
          "stateMutability": "nonpayable",
          "type": "function"
        },
        {
          "inputs": [
            {
              "internalType": "string",
              "name": "_hiddenMetadataUri",
              "type": "string"
            }
          ],
          "name": "setHiddenMetadataUri",
          "outputs": [],
          "stateMutability": "nonpayable",
          "type": "function"
        },
        {
          "inputs": [
            {
              "internalType": "uint256",
              "name": "_maxMintAmountPerTx",
              "type": "uint256"
            }
          ],
          "name": "setMaxMintAmountPerTx",
          "outputs": [],
          "stateMutability": "nonpayable",
          "type": "function"
        },
        {
          "inputs": [
            {
              "internalType": "bytes32",
              "name": "_merkleRoot",
              "type": "bytes32"
            }
          ],
          "name": "setMerkleRoot",
          "outputs": [],
          "stateMutability": "nonpayable",
          "type": "function"
        },
        {
          "inputs": [
            {
              "internalType": "uint256",
              "name": "_limit",
              "type": "uint256"
            }
          ],
          "name": "setNftPerAddressLimit",
          "outputs": [],
          "stateMutability": "nonpayable",
          "type": "function"
        },
        {
          "inputs": [
            {
              "internalType": "bool",
              "name": "_state",
              "type": "bool"
            }
          ],
          "name": "setPaused",
          "outputs": [],
          "stateMutability": "nonpayable",
          "type": "function"
        },
        {
          "inputs": [
            {
              "internalType": "bool",
              "name": "_state",
              "type": "bool"
            }
          ],
          "name": "setRevealed",
          "outputs": [],
          "stateMutability": "nonpayable",
          "type": "function"
        },
        {
          "inputs": [
            {
              "internalType": "string",
              "name": "_uriPrefix",
              "type": "string"
            }
          ],
          "name": "setUriPrefix",
          "outputs": [],
          "stateMutability": "nonpayable",
          "type": "function"
        },
        {
          "inputs": [
            {
              "internalType": "string",
              "name": "_uriSuffix",
              "type": "string"
            }
          ],
          "name": "setUriSuffix",
          "outputs": [],
          "stateMutability": "nonpayable",
          "type": "function"
        },
        {
          "inputs": [
            {
              "internalType": "address",
              "name": "_address",
              "type": "address"
            }
          ],
          "name": "setWhitelistException",
          "outputs": [],
          "stateMutability": "nonpayable",
          "type": "function"
        },
        {
          "inputs": [
            {
              "internalType": "bool",
              "name": "_state",
              "type": "bool"
            }
          ],
          "name": "setWhitelistMintEnabled",
          "outputs": [],
          "stateMutability": "nonpayable",
          "type": "function"
        },
        {
          "inputs": [
            {
              "internalType": "bytes4",
              "name": "interfaceId",
              "type": "bytes4"
            }
          ],
          "name": "supportsInterface",
          "outputs": [
            {
              "internalType": "bool",
              "name": "",
              "type": "bool"
            }
          ],
          "stateMutability": "view",
          "type": "function"
        },
        {
          "inputs": [],
          "name": "symbol",
          "outputs": [
            {
              "internalType": "string",
              "name": "",
              "type": "string"
            }
          ],
          "stateMutability": "view",
          "type": "function"
        },
        {
          "inputs": [
            {
              "internalType": "uint256",
              "name": "_tokenId",
              "type": "uint256"
            }
          ],
          "name": "tokenURI",
          "outputs": [
            {
              "internalType": "string",
              "name": "",
              "type": "string"
            }
          ],
          "stateMutability": "view",
          "type": "function"
        },
        {
          "inputs": [
            {
              "internalType": "address",
              "name": "owner",
              "type": "address"
            }
          ],
          "name": "tokensOfOwner",
          "outputs": [
            {
              "internalType": "uint256[]",
              "name": "",
              "type": "uint256[]"
            }
          ],
          "stateMutability": "view",
          "type": "function"
        },
        {
          "inputs": [
            {
              "internalType": "address",
              "name": "owner",
              "type": "address"
            },
            {
              "internalType": "uint256",
              "name": "start",
              "type": "uint256"
            },
            {
              "internalType": "uint256",
              "name": "stop",
              "type": "uint256"
            }
          ],
          "name": "tokensOfOwnerIn",
          "outputs": [
            {
              "internalType": "uint256[]",
              "name": "",
              "type": "uint256[]"
            }
          ],
          "stateMutability": "view",
          "type": "function"
        },
        {
          "inputs": [],
          "name": "totalSupply",
          "outputs": [
            {
              "internalType": "uint256",
              "name": "",
              "type": "uint256"
            }
          ],
          "stateMutability": "view",
          "type": "function"
        },
        {
          "inputs": [
            {
              "internalType": "address",
              "name": "from",
              "type": "address"
            },
            {
              "internalType": "address",
              "name": "to",
              "type": "address"
            },
            {
              "internalType": "uint256",
              "name": "tokenId",
              "type": "uint256"
            }
          ],
          "name": "transferFrom",
          "outputs": [],
          "stateMutability": "nonpayable",
          "type": "function"
        },
        {
          "inputs": [
            {
              "internalType": "address",
              "name": "newOwner",
              "type": "address"
            }
          ],
          "name": "transferOwnership",
          "outputs": [],
          "stateMutability": "nonpayable",
          "type": "function"
        },
        {
          "inputs": [],
          "name": "uriPrefix",
          "outputs": [
            {
              "internalType": "string",
              "name": "",
              "type": "string"
            }
          ],
          "stateMutability": "view",
          "type": "function"
        },
        {
          "inputs": [],
          "name": "uriSuffix",
          "outputs": [
            {
              "internalType": "string",
              "name": "",
              "type": "string"
            }
          ],
          "stateMutability": "view",
          "type": "function"
        },
        {
          "inputs": [
            {
              "internalType": "address",
              "name": "",
              "type": "address"
            }
          ],
          "name": "whitelistClaimed",
          "outputs": [
            {
              "internalType": "bool",
              "name": "",
              "type": "bool"
            }
          ],
          "stateMutability": "view",
          "type": "function"
        },
        {
          "inputs": [
            {
              "internalType": "address",
              "name": "",
              "type": "address"
            }
          ],
          "name": "whitelistException",
          "outputs": [
            {
              "internalType": "bool",
              "name": "",
              "type": "bool"
            }
          ],
          "stateMutability": "view",
          "type": "function"
        },
        {
          "inputs": [
            {
              "internalType": "uint256",
              "name": "_mintAmount",
              "type": "uint256"
            },
            {
              "internalType": "bytes32[]",
              "name": "_merkleProof",
              "type": "bytes32[]"
            }
          ],
          "name": "whitelistMint",
          "outputs": [],
          "stateMutability": "payable",
          "type": "function"
        },
        {
          "inputs": [],
          "name": "whitelistMintEnabled",
          "outputs": [
            {
              "internalType": "bool",
              "name": "",
              "type": "bool"
            }
          ],
          "stateMutability": "view",
          "type": "function"
        },
        {
          "inputs": [],
          "name": "withdraw",
          "outputs": [],
          "stateMutability": "nonpayable",
          "type": "function"
        }
      ],
      "evm": {
        "bytecode": {
          "linkReferences": {},
          "object": "60a06040819052600060808190526200001b91600d9162000262565b5060408051808201909152600580825264173539b7b760d91b60209092019182526200004a91600e9162000262565b5060026013556014805462ffffff191660011790553480156200006c57600080fd5b50604051620031f1380380620031f18339810160408190526200008f91620003d5565b855186908690620000a890600290602085019062000262565b508051620000be90600390602084019062000262565b5050600160005550620000d13362000108565b6001600955620000e1846200015a565b6011839055620000f182620001ae565b620000fc81620001fe565b505050505050620004bf565b600880546001600160a01b038381166001600160a01b0319831681179093556040519116919082907f8be0079c531659141344cd1fd0a4f28419497f9722a3daafe3b4186f6b6457e090600090a35050565b6008546001600160a01b03163314620001a95760405162461bcd60e51b81526020600482018190526024820152600080516020620031d183398151915260448201526064015b60405180910390fd5b601055565b6008546001600160a01b03163314620001f95760405162461bcd60e51b81526020600482018190526024820152600080516020620031d18339815191526044820152606401620001a0565b601255565b6008546001600160a01b03163314620002495760405162461bcd60e51b81526020600482018190526024820152600080516020620031d18339815191526044820152606401620001a0565b80516200025e90600f90602084019062000262565b5050565b828054620002709062000482565b90600052602060002090601f016020900481019282620002945760008555620002df565b82601f10620002af57805160ff1916838001178555620002df565b82800160010185558215620002df579182015b82811115620002df578251825591602001919060010190620002c2565b50620002ed929150620002f1565b5090565b5b80821115620002ed5760008155600101620002f2565b634e487b7160e01b600052604160045260246000fd5b600082601f8301126200033057600080fd5b81516001600160401b03808211156200034d576200034d62000308565b604051601f8301601f19908116603f0116810190828211818310171562000378576200037862000308565b816040528381526020925086838588010111156200039557600080fd5b600091505b83821015620003b957858201830151818301840152908201906200039a565b83821115620003cb5760008385830101525b9695505050505050565b60008060008060008060c08789031215620003ef57600080fd5b86516001600160401b03808211156200040757600080fd5b620004158a838b016200031e565b975060208901519150808211156200042c57600080fd5b6200043a8a838b016200031e565b965060408901519550606089015194506080890151935060a08901519150808211156200046657600080fd5b506200047589828a016200031e565b9150509295509295509295565b600181811c908216806200049757607f821691505b60208210811415620004b957634e487b7160e01b600052602260045260246000fd5b50919050565b612d0280620004cf6000396000f3fe6080604052600436106102ae5760003560e01c8063715018a611610175578063b767a098116100dc578063d2cab05611610095578063e0a808531161006f578063e0a8085314610840578063e985e9c514610860578063efbd73f414610880578063f2fde38b146108a057600080fd5b8063d2cab056146107e7578063d5abeb01146107fa578063db4bec441461081057600080fd5b8063b767a09814610724578063b88d4fde14610744578063ba7d2c7614610764578063c23dc68f1461077a578063c87b56dd146107a7578063d0eb26b0146107c757600080fd5b806395d89b411161012e57806395d89b411461068757806399a2557a1461069c578063a0712d68146106bc578063a22cb465146106cf578063a45ba8e7146106ef578063b071401b1461070457600080fd5b8063715018a6146105d15780637cb64759146105e65780637ec4a659146106065780638462151c146106265780638da5cb5b1461065357806394354fd01461067157600080fd5b806342842e0e116102195780635bbb2177116101d25780635bbb2177146105165780635c975abb1461054357806362b99ad41461055d5780636352211e146105725780636caede3d1461059257806370a08231146105b157600080fd5b806342842e0e1461046157806343f4251d1461048157806344a0d68a146104a15780634fdd43cb146104c157806351830227146104e15780635503a0e81461050157600080fd5b806316ba10e01161026b57806316ba10e0146103b857806316c38b3c146103d857806318160ddd146103f857806323b872dd146104165780632eb4a7ab146104365780633ccfd60b1461044c57600080fd5b806301ffc9a7146102b357806306fdde03146102e8578063076fb8be1461030a578063081812fc1461033a578063095ea7b31461037257806313faede614610394575b600080fd5b3480156102bf57600080fd5b506102d36102ce366004612499565b6108c0565b60405190151581526020015b60405180910390f35b3480156102f457600080fd5b506102fd610912565b6040516102df919061250e565b34801561031657600080fd5b506102d361032536600461253d565b600c6020526000908152604090205460ff1681565b34801561034657600080fd5b5061035a610355366004612558565b6109a4565b6040516001600160a01b0390911681526020016102df565b34801561037e57600080fd5b5061039261038d366004612571565b6109e8565b005b3480156103a057600080fd5b506103aa60105481565b6040519081526020016102df565b3480156103c457600080fd5b506103926103d3366004612638565b610a6f565b3480156103e457600080fd5b506103926103f3366004612690565b610ab9565b34801561040457600080fd5b506103aa600154600054036000190190565b34801561042257600080fd5b506103926104313660046126ab565b610af6565b34801561044257600080fd5b506103aa600a5481565b34801561045857600080fd5b50610392610b01565b34801561046d57600080fd5b5061039261047c3660046126ab565b610bfc565b34801561048d57600080fd5b5061039261049c36600461253d565b610c17565b3480156104ad57600080fd5b506103926104bc366004612558565b610c65565b3480156104cd57600080fd5b506103926104dc366004612638565b610c94565b3480156104ed57600080fd5b506014546102d39062010000900460ff1681565b34801561050d57600080fd5b506102fd610cd1565b34801561052257600080fd5b506105366105313660046126e7565b610d5f565b6040516102df919061278c565b34801561054f57600080fd5b506014546102d39060ff1681565b34801561056957600080fd5b506102fd610e25565b34801561057e57600080fd5b5061035a61058d366004612558565b610e32565b34801561059e57600080fd5b506014546102d390610100900460ff1681565b3480156105bd57600080fd5b506103aa6105cc36600461253d565b610e44565b3480156105dd57600080fd5b50610392610e92565b3480156105f257600080fd5b50610392610601366004612558565b610ec8565b34801561061257600080fd5b50610392610621366004612638565b610ef7565b34801561063257600080fd5b5061064661064136600461253d565b610f34565b6040516102df91906127f6565b34801561065f57600080fd5b506008546001600160a01b031661035a565b34801561067d57600080fd5b506103aa60125481565b34801561069357600080fd5b506102fd611081565b3480156106a857600080fd5b506106466106b736600461282e565b611090565b6103926106ca366004612558565b611256565b3480156106db57600080fd5b506103926106ea366004612861565b611394565b3480156106fb57600080fd5b506102fd61142a565b34801561071057600080fd5b5061039261071f366004612558565b611437565b34801561073057600080fd5b5061039261073f366004612690565b611466565b34801561075057600080fd5b5061039261075f366004612894565b6114aa565b34801561077057600080fd5b506103aa60135481565b34801561078657600080fd5b5061079a610795366004612558565b6114ee565b6040516102df919061290f565b3480156107b357600080fd5b506102fd6107c2366004612558565b6115a8565b3480156107d357600080fd5b506103926107e2366004612558565b611717565b6103926107f5366004612944565b611746565b34801561080657600080fd5b506103aa60115481565b34801561081c57600080fd5b506102d361082b36600461253d565b600b6020526000908152604090205460ff1681565b34801561084c57600080fd5b5061039261085b366004612690565b6119e1565b34801561086c57600080fd5b506102d361087b3660046129c2565b611a27565b34801561088c57600080fd5b5061039261089b3660046129ec565b611a55565b3480156108ac57600080fd5b506103926108bb36600461253d565b611af5565b60006001600160e01b031982166380ac58cd60e01b14806108f157506001600160e01b03198216635b5e139f60e01b145b8061090c57506301ffc9a760e01b6001600160e01b03198316145b92915050565b60606002805461092190612a0f565b80601f016020809104026020016040519081016040528092919081815260200182805461094d90612a0f565b801561099a5780601f1061096f5761010080835404028352916020019161099a565b820191906000526020600020905b81548152906001019060200180831161097d57829003601f168201915b5050505050905090565b60006109af82611b90565b6109cc576040516333d1c03960e21b815260040160405180910390fd5b506000908152600660205260409020546001600160a01b031690565b60006109f382610e32565b9050806001600160a01b0316836001600160a01b03161415610a285760405163250fdee360e21b815260040160405180910390fd5b336001600160a01b03821614610a5f57610a428133611a27565b610a5f576040516367d9dca160e11b815260040160405180910390fd5b610a6a838383611bc9565b505050565b6008546001600160a01b03163314610aa25760405162461bcd60e51b8152600401610a9990612a4a565b60405180910390fd5b8051610ab590600e9060208401906123ea565b5050565b6008546001600160a01b03163314610ae35760405162461bcd60e51b8152600401610a9990612a4a565b6014805460ff1916911515919091179055565b610a6a838383611c25565b6008546001600160a01b03163314610b2b5760405162461bcd60e51b8152600401610a9990612a4a565b60026009541415610b7e5760405162461bcd60e51b815260206004820152601f60248201527f5265656e7472616e637947756172643a207265656e7472616e742063616c6c006044820152606401610a99565b60026009556000610b976008546001600160a01b031690565b6001600160a01b03164760405160006040518083038185875af1925050503d8060008114610be1576040519150601f19603f3d011682016040523d82523d6000602084013e610be6565b606091505b5050905080610bf457600080fd5b506001600955565b610a6a838383604051806020016040528060008152506114aa565b6008546001600160a01b03163314610c415760405162461bcd60e51b8152600401610a9990612a4a565b6001600160a01b03166000908152600c60205260409020805460ff19166001179055565b6008546001600160a01b03163314610c8f5760405162461bcd60e51b8152600401610a9990612a4a565b601055565b6008546001600160a01b03163314610cbe5760405162461bcd60e51b8152600401610a9990612a4a565b8051610ab590600f9060208401906123ea565b600e8054610cde90612a0f565b80601f0160208091040260200160405190810160405280929190818152602001828054610d0a90612a0f565b8015610d575780601f10610d2c57610100808354040283529160200191610d57565b820191906000526020600020905b815481529060010190602001808311610d3a57829003601f168201915b505050505081565b80516060906000816001600160401b03811115610d7e57610d7e61259b565b604051908082528060200260200182016040528015610dc957816020015b6040805160608101825260008082526020808301829052928201528252600019909201910181610d9c5790505b50905060005b828114610e1d57610df8858281518110610deb57610deb612a7f565b60200260200101516114ee565b828281518110610e0a57610e0a612a7f565b6020908102919091010152600101610dcf565b509392505050565b600d8054610cde90612a0f565b6000610e3d82611e12565b5192915050565b60006001600160a01b038216610e6d576040516323d3ad8160e21b815260040160405180910390fd5b506001600160a01b03166000908152600560205260409020546001600160401b031690565b6008546001600160a01b03163314610ebc5760405162461bcd60e51b8152600401610a9990612a4a565b610ec66000611f34565b565b6008546001600160a01b03163314610ef25760405162461bcd60e51b8152600401610a9990612a4a565b600a55565b6008546001600160a01b03163314610f215760405162461bcd60e51b8152600401610a9990612a4a565b8051610ab590600d9060208401906123ea565b60606000806000610f4485610e44565b90506000816001600160401b03811115610f6057610f6061259b565b604051908082528060200260200182016040528015610f89578160200160208202803683370190505b509050610faf604080516060810182526000808252602082018190529181019190915290565b60015b83861461107557600081815260046020908152604091829020825160608101845290546001600160a01b0381168252600160a01b81046001600160401b031692820192909252600160e01b90910460ff161580159282019290925292506110185761106d565b81516001600160a01b03161561102d57815194505b876001600160a01b0316856001600160a01b0316141561106d578083878060010198508151811061106057611060612a7f565b6020026020010181815250505b600101610fb2565b50909695505050505050565b60606003805461092190612a0f565b60608183106110b257604051631960ccad60e11b815260040160405180910390fd5b6000805460018510156110c457600194505b808411156110d0578093505b60006110db87610e44565b9050848610156110fa57858503818110156110f4578091505b506110fe565b5060005b6000816001600160401b038111156111185761111861259b565b604051908082528060200260200182016040528015611141578160200160208202803683370190505b5090508161115457935061124f92505050565b600061115f886114ee565b905060008160400151611170575080515b885b8881141580156111825750848714155b1561124357600081815260046020908152604091829020825160608101845290546001600160a01b0381168252600160a01b81046001600160401b031692820192909252600160e01b90910460ff161580159282019290925293506111e65761123b565b82516001600160a01b0316156111fb57825191505b8a6001600160a01b0316826001600160a01b0316141561123b578084888060010199508151811061122e5761122e612a7f565b6020026020010181815250505b600101611172565b50505092835250909150505b9392505050565b8060008111801561126957506012548111155b6112855760405162461bcd60e51b8152600401610a9990612a95565b6011548161129a600154600054036000190190565b6112a49190612ad9565b11156112c25760405162461bcd60e51b8152600401610a9990612af1565b81806010546112d19190612b1f565b3410156113165760405162461bcd60e51b8152602060048201526013602482015272496e73756666696369656e742066756e64732160681b6044820152606401610a99565b60145460ff16156113695760405162461bcd60e51b815260206004820152601760248201527f54686520636f6e747261637420697320706175736564210000000000000000006044820152606401610a99565b600061137433610e44565b9050601354811061138457600080fd5b61138e3385611f86565b50505050565b6001600160a01b0382163314156113be5760405163b06307db60e01b815260040160405180910390fd5b3360008181526007602090815260408083206001600160a01b03871680855290835292819020805460ff191686151590811790915590519081529192917f17307eab39ab6107e8899845ad3d59bd9653f200f220920489ca2b5937696c31910160405180910390a35050565b600f8054610cde90612a0f565b6008546001600160a01b031633146114615760405162461bcd60e51b8152600401610a9990612a4a565b601255565b6008546001600160a01b031633146114905760405162461bcd60e51b8152600401610a9990612a4a565b601480549115156101000261ff0019909216919091179055565b6114b5848484611c25565b6001600160a01b0383163b1561138e576114d184848484611fa0565b61138e576040516368d2bf6b60e11b815260040160405180910390fd5b6040805160608082018352600080835260208084018290528385018290528451928301855281835282018190529281019290925290600183108061153457506000548310155b1561153f5792915050565b50600082815260046020908152604091829020825160608101845290546001600160a01b0381168252600160a01b81046001600160401b031692820192909252600160e01b90910460ff16158015928201929092529061159f5792915050565b61124f83611e12565b60606115b382611b90565b6116175760405162461bcd60e51b815260206004820152602f60248201527f4552433732314d657461646174613a2055524920717565727920666f72206e6f60448201526e3732bc34b9ba32b73a103a37b5b2b760891b6064820152608401610a99565b60145462010000900460ff166116b957600f805461163490612a0f565b80601f016020809104026020016040519081016040528092919081815260200182805461166090612a0f565b80156116ad5780601f10611682576101008083540402835291602001916116ad565b820191906000526020600020905b81548152906001019060200180831161169057829003601f168201915b50505050509050919050565b60006116c3612098565b905060008151116116e3576040518060200160405280600081525061124f565b806116ed846120a7565b600e60405160200161170193929190612b3e565b6040516020818303038152906040529392505050565b6008546001600160a01b031633146117415760405162461bcd60e51b8152600401610a9990612a4a565b601355565b8260008111801561175957506012548111155b6117755760405162461bcd60e51b8152600401610a9990612a95565b6011548161178a600154600054036000190190565b6117949190612ad9565b11156117b25760405162461bcd60e51b8152600401610a9990612af1565b83806010546117c19190612b1f565b3410156118065760405162461bcd60e51b8152602060048201526013602482015272496e73756666696369656e742066756e64732160681b6044820152606401610a99565b601454610100900460ff166118685760405162461bcd60e51b815260206004820152602260248201527f5468652077686974656c6973742073616c65206973206e6f7420656e61626c65604482015261642160f01b6064820152608401610a99565b336000908152600c602052604090205460ff16806118965750336000908152600b602052604090205460ff16155b6118e25760405162461bcd60e51b815260206004820152601860248201527f4164647265737320616c726561647920636c61696d65642100000000000000006044820152606401610a99565b6040516bffffffffffffffffffffffff193360601b16602082015260009060340160405160208183030381529060405280519060200120905061195c85858080602002602001604051908101604052809392919081815260200183836020028082843760009201919091525050600a5491508490506121a4565b6119995760405162461bcd60e51b815260206004820152600e60248201526d496e76616c69642070726f6f662160901b6044820152606401610a99565b60006119a433610e44565b905060135481106119b457600080fd5b336000818152600b60205260409020805460ff191660011790556119d89088611f86565b50505050505050565b6008546001600160a01b03163314611a0b5760405162461bcd60e51b8152600401610a9990612a4a565b60148054911515620100000262ff000019909216919091179055565b6001600160a01b03918216600090815260076020908152604080832093909416825291909152205460ff1690565b81600081118015611a6857506012548111155b611a845760405162461bcd60e51b8152600401610a9990612a95565b60115481611a99600154600054036000190190565b611aa39190612ad9565b1115611ac15760405162461bcd60e51b8152600401610a9990612af1565b6008546001600160a01b03163314611aeb5760405162461bcd60e51b8152600401610a9990612a4a565b610a6a8284611f86565b6008546001600160a01b03163314611b1f5760405162461bcd60e51b8152600401610a9990612a4a565b6001600160a01b038116611b845760405162461bcd60e51b815260206004820152602660248201527f4f776e61626c653a206e6577206f776e657220697320746865207a65726f206160448201526564647265737360d01b6064820152608401610a99565b611b8d81611f34565b50565b600081600111158015611ba4575060005482105b801561090c575050600090815260046020526040902054600160e01b900460ff161590565b60008281526006602052604080822080546001600160a01b0319166001600160a01b0387811691821790925591518593918516917f8c5be1e5ebec7d5bd14f71427d1e84f3dd0314c0f7b2291e5b200ac8c7c3b92591a4505050565b6000611c3082611e12565b9050836001600160a01b031681600001516001600160a01b031614611c675760405162a1148160e81b815260040160405180910390fd5b6000336001600160a01b0386161480611c855750611c858533611a27565b80611ca0575033611c95846109a4565b6001600160a01b0316145b905080611cc057604051632ce44b5f60e11b815260040160405180910390fd5b6001600160a01b038416611ce757604051633a954ecd60e21b815260040160405180910390fd5b611cf360008487611bc9565b6001600160a01b038581166000908152600560209081526040808320805467ffffffffffffffff198082166001600160401b0392831660001901831617909255898616808652838620805493841693831660019081018416949094179055898652600490945282852080546001600160e01b031916909417600160a01b42909216919091021783558701808452922080549193909116611dc7576000548214611dc757805460208601516001600160401b0316600160a01b026001600160e01b03199091166001600160a01b038a16171781555b50505082846001600160a01b0316866001600160a01b03167fddf252ad1be2c89b69c2b068fc378daa952ba7f163c4a11628f55a4df523b3ef60405160405180910390a45050505050565b60408051606081018252600080825260208201819052918101919091528180600111611f1b57600054811015611f1b57600081815260046020908152604091829020825160608101845290546001600160a01b0381168252600160a01b81046001600160401b031692820192909252600160e01b90910460ff16151591810182905290611f195780516001600160a01b031615611eb0579392505050565b5060001901600081815260046020908152604091829020825160608101845290546001600160a01b038116808352600160a01b82046001600160401b031693830193909352600160e01b900460ff1615159281019290925215611f14579392505050565b611eb0565b505b604051636f96cda160e11b815260040160405180910390fd5b600880546001600160a01b038381166001600160a01b0319831681179093556040519116919082907f8be0079c531659141344cd1fd0a4f28419497f9722a3daafe3b4186f6b6457e090600090a35050565b610ab58282604051806020016040528060008152506121ba565b604051630a85bd0160e11b81526000906001600160a01b0385169063150b7a0290611fd5903390899088908890600401612c02565b602060405180830381600087803b158015611fef57600080fd5b505af192505050801561201f575060408051601f3d908101601f1916820190925261201c91810190612c3f565b60015b61207a573d80801561204d576040519150601f19603f3d011682016040523d82523d6000602084013e612052565b606091505b508051612072576040516368d2bf6b60e11b815260040160405180910390fd5b805181602001fd5b6001600160e01b031916630a85bd0160e11b1490505b949350505050565b6060600d805461092190612a0f565b6060816120cb5750506040805180820190915260018152600360fc1b602082015290565b8160005b81156120f557806120df81612c5c565b91506120ee9050600a83612c8d565b91506120cf565b6000816001600160401b0381111561210f5761210f61259b565b6040519080825280601f01601f191660200182016040528015612139576020820181803683370190505b5090505b84156120905761214e600183612ca1565b915061215b600a86612cb8565b612166906030612ad9565b60f81b81838151811061217b5761217b612a7f565b60200101906001600160f81b031916908160001a90535061219d600a86612c8d565b945061213d565b6000826121b1858461237e565b14949350505050565b6000546001600160a01b0384166121e357604051622e076360e81b815260040160405180910390fd5b826122015760405163b562e8dd60e01b815260040160405180910390fd5b6001600160a01b038416600081815260056020908152604080832080546fffffffffffffffffffffffffffffffff1981166001600160401b038083168b0181169182176801000000000000000067ffffffffffffffff1990941690921783900481168b01811690920217909155858452600490925290912080546001600160e01b0319168317600160a01b42909316929092029190911790558190818501903b15612329575b60405182906001600160a01b038816906000907fddf252ad1be2c89b69c2b068fc378daa952ba7f163c4a11628f55a4df523b3ef908290a46122f26000878480600101955087611fa0565b61230f576040516368d2bf6b60e11b815260040160405180910390fd5b8082106122a757826000541461232457600080fd5b61236e565b5b6040516001830192906001600160a01b038816906000907fddf252ad1be2c89b69c2b068fc378daa952ba7f163c4a11628f55a4df523b3ef908290a480821061232a575b50600090815561138e9085838684565b600081815b8451811015610e1d5760008582815181106123a0576123a0612a7f565b602002602001015190508083116123c657600083815260208290526040902092506123d7565b600081815260208490526040902092505b50806123e281612c5c565b915050612383565b8280546123f690612a0f565b90600052602060002090601f016020900481019282612418576000855561245e565b82601f1061243157805160ff191683800117855561245e565b8280016001018555821561245e579182015b8281111561245e578251825591602001919060010190612443565b5061246a92915061246e565b5090565b5b8082111561246a576000815560010161246f565b6001600160e01b031981168114611b8d57600080fd5b6000602082840312156124ab57600080fd5b813561124f81612483565b60005b838110156124d15781810151838201526020016124b9565b8381111561138e5750506000910152565b600081518084526124fa8160208601602086016124b6565b601f01601f19169290920160200192915050565b60208152600061124f60208301846124e2565b80356001600160a01b038116811461253857600080fd5b919050565b60006020828403121561254f57600080fd5b61124f82612521565b60006020828403121561256a57600080fd5b5035919050565b6000806040838503121561258457600080fd5b61258d83612521565b946020939093013593505050565b634e487b7160e01b600052604160045260246000fd5b604051601f8201601f191681016001600160401b03811182821017156125d9576125d961259b565b604052919050565b60006001600160401b038311156125fa576125fa61259b565b61260d601f8401601f19166020016125b1565b905082815283838301111561262157600080fd5b828260208301376000602084830101529392505050565b60006020828403121561264a57600080fd5b81356001600160401b0381111561266057600080fd5b8201601f8101841361267157600080fd5b612090848235602084016125e1565b8035801515811461253857600080fd5b6000602082840312156126a257600080fd5b61124f82612680565b6000806000606084860312156126c057600080fd5b6126c984612521565b92506126d760208501612521565b9150604084013590509250925092565b600060208083850312156126fa57600080fd5b82356001600160401b038082111561271157600080fd5b818501915085601f83011261272557600080fd5b8135818111156127375761273761259b565b8060051b91506127488483016125b1565b818152918301840191848101908884111561276257600080fd5b938501935b8385101561278057843582529385019390850190612767565b98975050505050505050565b6020808252825182820181905260009190848201906040850190845b81811015611075576127e383855180516001600160a01b031682526020808201516001600160401b0316908301526040908101511515910152565b92840192606092909201916001016127a8565b6020808252825182820181905260009190848201906040850190845b8181101561107557835183529284019291840191600101612812565b60008060006060848603121561284357600080fd5b61284c84612521565b95602085013595506040909401359392505050565b6000806040838503121561287457600080fd5b61287d83612521565b915061288b60208401612680565b90509250929050565b600080600080608085870312156128aa57600080fd5b6128b385612521565b93506128c160208601612521565b92506040850135915060608501356001600160401b038111156128e357600080fd5b8501601f810187136128f457600080fd5b612903878235602084016125e1565b91505092959194509250565b81516001600160a01b031681526020808301516001600160401b0316908201526040808301511515908201526060810161090c565b60008060006040848603121561295957600080fd5b8335925060208401356001600160401b038082111561297757600080fd5b818601915086601f83011261298b57600080fd5b81358181111561299a57600080fd5b8760208260051b85010111156129af57600080fd5b6020830194508093505050509250925092565b600080604083850312156129d557600080fd5b6129de83612521565b915061288b60208401612521565b600080604083850312156129ff57600080fd5b8235915061288b60208401612521565b600181811c90821680612a2357607f821691505b60208210811415612a4457634e487b7160e01b600052602260045260246000fd5b50919050565b6020808252818101527f4f776e61626c653a2063616c6c6572206973206e6f7420746865206f776e6572604082015260600190565b634e487b7160e01b600052603260045260246000fd5b602080825260149082015273496e76616c6964206d696e7420616d6f756e742160601b604082015260600190565b634e487b7160e01b600052601160045260246000fd5b60008219821115612aec57612aec612ac3565b500190565b6020808252601490820152734d617820737570706c792065786365656465642160601b604082015260600190565b6000816000190483118215151615612b3957612b39612ac3565b500290565b600084516020612b518285838a016124b6565b855191840191612b648184848a016124b6565b8554920191600090600181811c9080831680612b8157607f831692505b858310811415612b9f57634e487b7160e01b85526022600452602485fd5b808015612bb35760018114612bc457612bf1565b60ff19851688528388019550612bf1565b60008b81526020902060005b85811015612be95781548a820152908401908801612bd0565b505083880195505b50939b9a5050505050505050505050565b6001600160a01b0385811682528416602082015260408101839052608060608201819052600090612c35908301846124e2565b9695505050505050565b600060208284031215612c5157600080fd5b815161124f81612483565b6000600019821415612c7057612c70612ac3565b5060010190565b634e487b7160e01b600052601260045260246000fd5b600082612c9c57612c9c612c77565b500490565b600082821015612cb357612cb3612ac3565b500390565b600082612cc757612cc7612c77565b50069056fea2646970667358221220793d774dd370b602a23191e923ad1bb99e7708742cc9c6f7aae22d3258cf5b4964736f6c634300080900334f776e61626c653a2063616c6c6572206973206e6f7420746865206f776e6572",
          "opcodes": "PUSH1 0xA0 PUSH1 0x40 DUP2 SWAP1 MSTORE PUSH1 0x0 PUSH1 0x80 DUP2 SWAP1 MSTORE PUSH3 0x1B SWAP2 PUSH1 0xD SWAP2 PUSH3 0x262 JUMP JUMPDEST POP PUSH1 0x40 DUP1 MLOAD DUP1 DUP3 ADD SWAP1 SWAP2 MSTORE PUSH1 0x5 DUP1 DUP3 MSTORE PUSH5 0x173539B7B7 PUSH1 0xD9 SHL PUSH1 0x20 SWAP1 SWAP3 ADD SWAP2 DUP3 MSTORE PUSH3 0x4A SWAP2 PUSH1 0xE SWAP2 PUSH3 0x262 JUMP JUMPDEST POP PUSH1 0x2 PUSH1 0x13 SSTORE PUSH1 0x14 DUP1 SLOAD PUSH3 0xFFFFFF NOT AND PUSH1 0x1 OR SWAP1 SSTORE CALLVALUE DUP1 ISZERO PUSH3 0x6C JUMPI PUSH1 0x0 DUP1 REVERT JUMPDEST POP PUSH1 0x40 MLOAD PUSH3 0x31F1 CODESIZE SUB DUP1 PUSH3 0x31F1 DUP4 CODECOPY DUP2 ADD PUSH1 0x40 DUP2 SWAP1 MSTORE PUSH3 0x8F SWAP2 PUSH3 0x3D5 JUMP JUMPDEST DUP6 MLOAD DUP7 SWAP1 DUP7 SWAP1 PUSH3 0xA8 SWAP1 PUSH1 0x2 SWAP1 PUSH1 0x20 DUP6 ADD SWAP1 PUSH3 0x262 JUMP JUMPDEST POP DUP1 MLOAD PUSH3 0xBE SWAP1 PUSH1 0x3 SWAP1 PUSH1 0x20 DUP5 ADD SWAP1 PUSH3 0x262 JUMP JUMPDEST POP POP PUSH1 0x1 PUSH1 0x0 SSTORE POP PUSH3 0xD1 CALLER PUSH3 0x108 JUMP JUMPDEST PUSH1 0x1 PUSH1 0x9 SSTORE PUSH3 0xE1 DUP5 PUSH3 0x15A JUMP JUMPDEST PUSH1 0x11 DUP4 SWAP1 SSTORE PUSH3 0xF1 DUP3 PUSH3 0x1AE JUMP JUMPDEST PUSH3 0xFC DUP2 PUSH3 0x1FE JUMP JUMPDEST POP POP POP POP POP POP PUSH3 0x4BF JUMP JUMPDEST PUSH1 0x8 DUP1 SLOAD PUSH1 0x1 PUSH1 0x1 PUSH1 0xA0 SHL SUB DUP4 DUP2 AND PUSH1 0x1 PUSH1 0x1 PUSH1 0xA0 SHL SUB NOT DUP4 AND DUP2 OR SWAP1 SWAP4 SSTORE PUSH1 0x40 MLOAD SWAP2 AND SWAP2 SWAP1 DUP3 SWAP1 PUSH32 0x8BE0079C531659141344CD1FD0A4F28419497F9722A3DAAFE3B4186F6B6457E0 SWAP1 PUSH1 0x0 SWAP1 LOG3 POP POP JUMP JUMPDEST PUSH1 0x8 SLOAD PUSH1 0x1 PUSH1 0x1 PUSH1 0xA0 SHL SUB AND CALLER EQ PUSH3 0x1A9 JUMPI PUSH1 0x40 MLOAD PUSH3 0x461BCD PUSH1 0xE5 SHL DUP2 MSTORE PUSH1 0x20 PUSH1 0x4 DUP3 ADD DUP2 SWAP1 MSTORE PUSH1 0x24 DUP3 ADD MSTORE PUSH1 0x0 DUP1 MLOAD PUSH1 0x20 PUSH3 0x31D1 DUP4 CODECOPY DUP2 MLOAD SWAP2 MSTORE PUSH1 0x44 DUP3 ADD MSTORE PUSH1 0x64 ADD JUMPDEST PUSH1 0x40 MLOAD DUP1 SWAP2 SUB SWAP1 REVERT JUMPDEST PUSH1 0x10 SSTORE JUMP JUMPDEST PUSH1 0x8 SLOAD PUSH1 0x1 PUSH1 0x1 PUSH1 0xA0 SHL SUB AND CALLER EQ PUSH3 0x1F9 JUMPI PUSH1 0x40 MLOAD PUSH3 0x461BCD PUSH1 0xE5 SHL DUP2 MSTORE PUSH1 0x20 PUSH1 0x4 DUP3 ADD DUP2 SWAP1 MSTORE PUSH1 0x24 DUP3 ADD MSTORE PUSH1 0x0 DUP1 MLOAD PUSH1 0x20 PUSH3 0x31D1 DUP4 CODECOPY DUP2 MLOAD SWAP2 MSTORE PUSH1 0x44 DUP3 ADD MSTORE PUSH1 0x64 ADD PUSH3 0x1A0 JUMP JUMPDEST PUSH1 0x12 SSTORE JUMP JUMPDEST PUSH1 0x8 SLOAD PUSH1 0x1 PUSH1 0x1 PUSH1 0xA0 SHL SUB AND CALLER EQ PUSH3 0x249 JUMPI PUSH1 0x40 MLOAD PUSH3 0x461BCD PUSH1 0xE5 SHL DUP2 MSTORE PUSH1 0x20 PUSH1 0x4 DUP3 ADD DUP2 SWAP1 MSTORE PUSH1 0x24 DUP3 ADD MSTORE PUSH1 0x0 DUP1 MLOAD PUSH1 0x20 PUSH3 0x31D1 DUP4 CODECOPY DUP2 MLOAD SWAP2 MSTORE PUSH1 0x44 DUP3 ADD MSTORE PUSH1 0x64 ADD PUSH3 0x1A0 JUMP JUMPDEST DUP1 MLOAD PUSH3 0x25E SWAP1 PUSH1 0xF SWAP1 PUSH1 0x20 DUP5 ADD SWAP1 PUSH3 0x262 JUMP JUMPDEST POP POP JUMP JUMPDEST DUP3 DUP1 SLOAD PUSH3 0x270 SWAP1 PUSH3 0x482 JUMP JUMPDEST SWAP1 PUSH1 0x0 MSTORE PUSH1 0x20 PUSH1 0x0 KECCAK256 SWAP1 PUSH1 0x1F ADD PUSH1 0x20 SWAP1 DIV DUP2 ADD SWAP3 DUP3 PUSH3 0x294 JUMPI PUSH1 0x0 DUP6 SSTORE PUSH3 0x2DF JUMP JUMPDEST DUP3 PUSH1 0x1F LT PUSH3 0x2AF JUMPI DUP1 MLOAD PUSH1 0xFF NOT AND DUP4 DUP1 ADD OR DUP6 SSTORE PUSH3 0x2DF JUMP JUMPDEST DUP3 DUP1 ADD PUSH1 0x1 ADD DUP6 SSTORE DUP3 ISZERO PUSH3 0x2DF JUMPI SWAP2 DUP3 ADD JUMPDEST DUP3 DUP2 GT ISZERO PUSH3 0x2DF JUMPI DUP3 MLOAD DUP3 SSTORE SWAP2 PUSH1 0x20 ADD SWAP2 SWAP1 PUSH1 0x1 ADD SWAP1 PUSH3 0x2C2 JUMP JUMPDEST POP PUSH3 0x2ED SWAP3 SWAP2 POP PUSH3 0x2F1 JUMP JUMPDEST POP SWAP1 JUMP JUMPDEST JUMPDEST DUP1 DUP3 GT ISZERO PUSH3 0x2ED JUMPI PUSH1 0x0 DUP2 SSTORE PUSH1 0x1 ADD PUSH3 0x2F2 JUMP JUMPDEST PUSH4 0x4E487B71 PUSH1 0xE0 SHL PUSH1 0x0 MSTORE PUSH1 0x41 PUSH1 0x4 MSTORE PUSH1 0x24 PUSH1 0x0 REVERT JUMPDEST PUSH1 0x0 DUP3 PUSH1 0x1F DUP4 ADD SLT PUSH3 0x330 JUMPI PUSH1 0x0 DUP1 REVERT JUMPDEST DUP2 MLOAD PUSH1 0x1 PUSH1 0x1 PUSH1 0x40 SHL SUB DUP1 DUP3 GT ISZERO PUSH3 0x34D JUMPI PUSH3 0x34D PUSH3 0x308 JUMP JUMPDEST PUSH1 0x40 MLOAD PUSH1 0x1F DUP4 ADD PUSH1 0x1F NOT SWAP1 DUP2 AND PUSH1 0x3F ADD AND DUP2 ADD SWAP1 DUP3 DUP3 GT DUP2 DUP4 LT OR ISZERO PUSH3 0x378 JUMPI PUSH3 0x378 PUSH3 0x308 JUMP JUMPDEST DUP2 PUSH1 0x40 MSTORE DUP4 DUP2 MSTORE PUSH1 0x20 SWAP3 POP DUP7 DUP4 DUP6 DUP9 ADD ADD GT ISZERO PUSH3 0x395 JUMPI PUSH1 0x0 DUP1 REVERT JUMPDEST PUSH1 0x0 SWAP2 POP JUMPDEST DUP4 DUP3 LT ISZERO PUSH3 0x3B9 JUMPI DUP6 DUP3 ADD DUP4 ADD MLOAD DUP2 DUP4 ADD DUP5 ADD MSTORE SWAP1 DUP3 ADD SWAP1 PUSH3 0x39A JUMP JUMPDEST DUP4 DUP3 GT ISZERO PUSH3 0x3CB JUMPI PUSH1 0x0 DUP4 DUP6 DUP4 ADD ADD MSTORE JUMPDEST SWAP7 SWAP6 POP POP POP POP POP POP JUMP JUMPDEST PUSH1 0x0 DUP1 PUSH1 0x0 DUP1 PUSH1 0x0 DUP1 PUSH1 0xC0 DUP8 DUP10 SUB SLT ISZERO PUSH3 0x3EF JUMPI PUSH1 0x0 DUP1 REVERT JUMPDEST DUP7 MLOAD PUSH1 0x1 PUSH1 0x1 PUSH1 0x40 SHL SUB DUP1 DUP3 GT ISZERO PUSH3 0x407 JUMPI PUSH1 0x0 DUP1 REVERT JUMPDEST PUSH3 0x415 DUP11 DUP4 DUP12 ADD PUSH3 0x31E JUMP JUMPDEST SWAP8 POP PUSH1 0x20 DUP10 ADD MLOAD SWAP2 POP DUP1 DUP3 GT ISZERO PUSH3 0x42C JUMPI PUSH1 0x0 DUP1 REVERT JUMPDEST PUSH3 0x43A DUP11 DUP4 DUP12 ADD PUSH3 0x31E JUMP JUMPDEST SWAP7 POP PUSH1 0x40 DUP10 ADD MLOAD SWAP6 POP PUSH1 0x60 DUP10 ADD MLOAD SWAP5 POP PUSH1 0x80 DUP10 ADD MLOAD SWAP4 POP PUSH1 0xA0 DUP10 ADD MLOAD SWAP2 POP DUP1 DUP3 GT ISZERO PUSH3 0x466 JUMPI PUSH1 0x0 DUP1 REVERT JUMPDEST POP PUSH3 0x475 DUP10 DUP3 DUP11 ADD PUSH3 0x31E JUMP JUMPDEST SWAP2 POP POP SWAP3 SWAP6 POP SWAP3 SWAP6 POP SWAP3 SWAP6 JUMP JUMPDEST PUSH1 0x1 DUP2 DUP2 SHR SWAP1 DUP3 AND DUP1 PUSH3 0x497 JUMPI PUSH1 0x7F DUP3 AND SWAP2 POP JUMPDEST PUSH1 0x20 DUP3 LT DUP2 EQ ISZERO PUSH3 0x4B9 JUMPI PUSH4 0x4E487B71 PUSH1 0xE0 SHL PUSH1 0x0 MSTORE PUSH1 0x22 PUSH1 0x4 MSTORE PUSH1 0x24 PUSH1 0x0 REVERT JUMPDEST POP SWAP2 SWAP1 POP JUMP JUMPDEST PUSH2 0x2D02 DUP1 PUSH3 0x4CF PUSH1 0x0 CODECOPY PUSH1 0x0 RETURN INVALID PUSH1 0x80 PUSH1 0x40 MSTORE PUSH1 0x4 CALLDATASIZE LT PUSH2 0x2AE JUMPI PUSH1 0x0 CALLDATALOAD PUSH1 0xE0 SHR DUP1 PUSH4 0x715018A6 GT PUSH2 0x175 JUMPI DUP1 PUSH4 0xB767A098 GT PUSH2 0xDC JUMPI DUP1 PUSH4 0xD2CAB056 GT PUSH2 0x95 JUMPI DUP1 PUSH4 0xE0A80853 GT PUSH2 0x6F JUMPI DUP1 PUSH4 0xE0A80853 EQ PUSH2 0x840 JUMPI DUP1 PUSH4 0xE985E9C5 EQ PUSH2 0x860 JUMPI DUP1 PUSH4 0xEFBD73F4 EQ PUSH2 0x880 JUMPI DUP1 PUSH4 0xF2FDE38B EQ PUSH2 0x8A0 JUMPI PUSH1 0x0 DUP1 REVERT JUMPDEST DUP1 PUSH4 0xD2CAB056 EQ PUSH2 0x7E7 JUMPI DUP1 PUSH4 0xD5ABEB01 EQ PUSH2 0x7FA JUMPI DUP1 PUSH4 0xDB4BEC44 EQ PUSH2 0x810 JUMPI PUSH1 0x0 DUP1 REVERT JUMPDEST DUP1 PUSH4 0xB767A098 EQ PUSH2 0x724 JUMPI DUP1 PUSH4 0xB88D4FDE EQ PUSH2 0x744 JUMPI DUP1 PUSH4 0xBA7D2C76 EQ PUSH2 0x764 JUMPI DUP1 PUSH4 0xC23DC68F EQ PUSH2 0x77A JUMPI DUP1 PUSH4 0xC87B56DD EQ PUSH2 0x7A7 JUMPI DUP1 PUSH4 0xD0EB26B0 EQ PUSH2 0x7C7 JUMPI PUSH1 0x0 DUP1 REVERT JUMPDEST DUP1 PUSH4 0x95D89B41 GT PUSH2 0x12E JUMPI DUP1 PUSH4 0x95D89B41 EQ PUSH2 0x687 JUMPI DUP1 PUSH4 0x99A2557A EQ PUSH2 0x69C JUMPI DUP1 PUSH4 0xA0712D68 EQ PUSH2 0x6BC JUMPI DUP1 PUSH4 0xA22CB465 EQ PUSH2 0x6CF JUMPI DUP1 PUSH4 0xA45BA8E7 EQ PUSH2 0x6EF JUMPI DUP1 PUSH4 0xB071401B EQ PUSH2 0x704 JUMPI PUSH1 0x0 DUP1 REVERT JUMPDEST DUP1 PUSH4 0x715018A6 EQ PUSH2 0x5D1 JUMPI DUP1 PUSH4 0x7CB64759 EQ PUSH2 0x5E6 JUMPI DUP1 PUSH4 0x7EC4A659 EQ PUSH2 0x606 JUMPI DUP1 PUSH4 0x8462151C EQ PUSH2 0x626 JUMPI DUP1 PUSH4 0x8DA5CB5B EQ PUSH2 0x653 JUMPI DUP1 PUSH4 0x94354FD0 EQ PUSH2 0x671 JUMPI PUSH1 0x0 DUP1 REVERT JUMPDEST DUP1 PUSH4 0x42842E0E GT PUSH2 0x219 JUMPI DUP1 PUSH4 0x5BBB2177 GT PUSH2 0x1D2 JUMPI DUP1 PUSH4 0x5BBB2177 EQ PUSH2 0x516 JUMPI DUP1 PUSH4 0x5C975ABB EQ PUSH2 0x543 JUMPI DUP1 PUSH4 0x62B99AD4 EQ PUSH2 0x55D JUMPI DUP1 PUSH4 0x6352211E EQ PUSH2 0x572 JUMPI DUP1 PUSH4 0x6CAEDE3D EQ PUSH2 0x592 JUMPI DUP1 PUSH4 0x70A08231 EQ PUSH2 0x5B1 JUMPI PUSH1 0x0 DUP1 REVERT JUMPDEST DUP1 PUSH4 0x42842E0E EQ PUSH2 0x461 JUMPI DUP1 PUSH4 0x43F4251D EQ PUSH2 0x481 JUMPI DUP1 PUSH4 0x44A0D68A EQ PUSH2 0x4A1 JUMPI DUP1 PUSH4 0x4FDD43CB EQ PUSH2 0x4C1 JUMPI DUP1 PUSH4 0x51830227 EQ PUSH2 0x4E1 JUMPI DUP1 PUSH4 0x5503A0E8 EQ PUSH2 0x501 JUMPI PUSH1 0x0 DUP1 REVERT JUMPDEST DUP1 PUSH4 0x16BA10E0 GT PUSH2 0x26B JUMPI DUP1 PUSH4 0x16BA10E0 EQ PUSH2 0x3B8 JUMPI DUP1 PUSH4 0x16C38B3C EQ PUSH2 0x3D8 JUMPI DUP1 PUSH4 0x18160DDD EQ PUSH2 0x3F8 JUMPI DUP1 PUSH4 0x23B872DD EQ PUSH2 0x416 JUMPI DUP1 PUSH4 0x2EB4A7AB EQ PUSH2 0x436 JUMPI DUP1 PUSH4 0x3CCFD60B EQ PUSH2 0x44C JUMPI PUSH1 0x0 DUP1 REVERT JUMPDEST DUP1 PUSH4 0x1FFC9A7 EQ PUSH2 0x2B3 JUMPI DUP1 PUSH4 0x6FDDE03 EQ PUSH2 0x2E8 JUMPI DUP1 PUSH4 0x76FB8BE EQ PUSH2 0x30A JUMPI DUP1 PUSH4 0x81812FC EQ PUSH2 0x33A JUMPI DUP1 PUSH4 0x95EA7B3 EQ PUSH2 0x372 JUMPI DUP1 PUSH4 0x13FAEDE6 EQ PUSH2 0x394 JUMPI JUMPDEST PUSH1 0x0 DUP1 REVERT JUMPDEST CALLVALUE DUP1 ISZERO PUSH2 0x2BF JUMPI PUSH1 0x0 DUP1 REVERT JUMPDEST POP PUSH2 0x2D3 PUSH2 0x2CE CALLDATASIZE PUSH1 0x4 PUSH2 0x2499 JUMP JUMPDEST PUSH2 0x8C0 JUMP JUMPDEST PUSH1 0x40 MLOAD SWAP1 ISZERO ISZERO DUP2 MSTORE PUSH1 0x20 ADD JUMPDEST PUSH1 0x40 MLOAD DUP1 SWAP2 SUB SWAP1 RETURN JUMPDEST CALLVALUE DUP1 ISZERO PUSH2 0x2F4 JUMPI PUSH1 0x0 DUP1 REVERT JUMPDEST POP PUSH2 0x2FD PUSH2 0x912 JUMP JUMPDEST PUSH1 0x40 MLOAD PUSH2 0x2DF SWAP2 SWAP1 PUSH2 0x250E JUMP JUMPDEST CALLVALUE DUP1 ISZERO PUSH2 0x316 JUMPI PUSH1 0x0 DUP1 REVERT JUMPDEST POP PUSH2 0x2D3 PUSH2 0x325 CALLDATASIZE PUSH1 0x4 PUSH2 0x253D JUMP JUMPDEST PUSH1 0xC PUSH1 0x20 MSTORE PUSH1 0x0 SWAP1 DUP2 MSTORE PUSH1 0x40 SWAP1 KECCAK256 SLOAD PUSH1 0xFF AND DUP2 JUMP JUMPDEST CALLVALUE DUP1 ISZERO PUSH2 0x346 JUMPI PUSH1 0x0 DUP1 REVERT JUMPDEST POP PUSH2 0x35A PUSH2 0x355 CALLDATASIZE PUSH1 0x4 PUSH2 0x2558 JUMP JUMPDEST PUSH2 0x9A4 JUMP JUMPDEST PUSH1 0x40 MLOAD PUSH1 0x1 PUSH1 0x1 PUSH1 0xA0 SHL SUB SWAP1 SWAP2 AND DUP2 MSTORE PUSH1 0x20 ADD PUSH2 0x2DF JUMP JUMPDEST CALLVALUE DUP1 ISZERO PUSH2 0x37E JUMPI PUSH1 0x0 DUP1 REVERT JUMPDEST POP PUSH2 0x392 PUSH2 0x38D CALLDATASIZE PUSH1 0x4 PUSH2 0x2571 JUMP JUMPDEST PUSH2 0x9E8 JUMP JUMPDEST STOP JUMPDEST CALLVALUE DUP1 ISZERO PUSH2 0x3A0 JUMPI PUSH1 0x0 DUP1 REVERT JUMPDEST POP PUSH2 0x3AA PUSH1 0x10 SLOAD DUP2 JUMP JUMPDEST PUSH1 0x40 MLOAD SWAP1 DUP2 MSTORE PUSH1 0x20 ADD PUSH2 0x2DF JUMP JUMPDEST CALLVALUE DUP1 ISZERO PUSH2 0x3C4 JUMPI PUSH1 0x0 DUP1 REVERT JUMPDEST POP PUSH2 0x392 PUSH2 0x3D3 CALLDATASIZE PUSH1 0x4 PUSH2 0x2638 JUMP JUMPDEST PUSH2 0xA6F JUMP JUMPDEST CALLVALUE DUP1 ISZERO PUSH2 0x3E4 JUMPI PUSH1 0x0 DUP1 REVERT JUMPDEST POP PUSH2 0x392 PUSH2 0x3F3 CALLDATASIZE PUSH1 0x4 PUSH2 0x2690 JUMP JUMPDEST PUSH2 0xAB9 JUMP JUMPDEST CALLVALUE DUP1 ISZERO PUSH2 0x404 JUMPI PUSH1 0x0 DUP1 REVERT JUMPDEST POP PUSH2 0x3AA PUSH1 0x1 SLOAD PUSH1 0x0 SLOAD SUB PUSH1 0x0 NOT ADD SWAP1 JUMP JUMPDEST CALLVALUE DUP1 ISZERO PUSH2 0x422 JUMPI PUSH1 0x0 DUP1 REVERT JUMPDEST POP PUSH2 0x392 PUSH2 0x431 CALLDATASIZE PUSH1 0x4 PUSH2 0x26AB JUMP JUMPDEST PUSH2 0xAF6 JUMP JUMPDEST CALLVALUE DUP1 ISZERO PUSH2 0x442 JUMPI PUSH1 0x0 DUP1 REVERT JUMPDEST POP PUSH2 0x3AA PUSH1 0xA SLOAD DUP2 JUMP JUMPDEST CALLVALUE DUP1 ISZERO PUSH2 0x458 JUMPI PUSH1 0x0 DUP1 REVERT JUMPDEST POP PUSH2 0x392 PUSH2 0xB01 JUMP JUMPDEST CALLVALUE DUP1 ISZERO PUSH2 0x46D JUMPI PUSH1 0x0 DUP1 REVERT JUMPDEST POP PUSH2 0x392 PUSH2 0x47C CALLDATASIZE PUSH1 0x4 PUSH2 0x26AB JUMP JUMPDEST PUSH2 0xBFC JUMP JUMPDEST CALLVALUE DUP1 ISZERO PUSH2 0x48D JUMPI PUSH1 0x0 DUP1 REVERT JUMPDEST POP PUSH2 0x392 PUSH2 0x49C CALLDATASIZE PUSH1 0x4 PUSH2 0x253D JUMP JUMPDEST PUSH2 0xC17 JUMP JUMPDEST CALLVALUE DUP1 ISZERO PUSH2 0x4AD JUMPI PUSH1 0x0 DUP1 REVERT JUMPDEST POP PUSH2 0x392 PUSH2 0x4BC CALLDATASIZE PUSH1 0x4 PUSH2 0x2558 JUMP JUMPDEST PUSH2 0xC65 JUMP JUMPDEST CALLVALUE DUP1 ISZERO PUSH2 0x4CD JUMPI PUSH1 0x0 DUP1 REVERT JUMPDEST POP PUSH2 0x392 PUSH2 0x4DC CALLDATASIZE PUSH1 0x4 PUSH2 0x2638 JUMP JUMPDEST PUSH2 0xC94 JUMP JUMPDEST CALLVALUE DUP1 ISZERO PUSH2 0x4ED JUMPI PUSH1 0x0 DUP1 REVERT JUMPDEST POP PUSH1 0x14 SLOAD PUSH2 0x2D3 SWAP1 PUSH3 0x10000 SWAP1 DIV PUSH1 0xFF AND DUP2 JUMP JUMPDEST CALLVALUE DUP1 ISZERO PUSH2 0x50D JUMPI PUSH1 0x0 DUP1 REVERT JUMPDEST POP PUSH2 0x2FD PUSH2 0xCD1 JUMP JUMPDEST CALLVALUE DUP1 ISZERO PUSH2 0x522 JUMPI PUSH1 0x0 DUP1 REVERT JUMPDEST POP PUSH2 0x536 PUSH2 0x531 CALLDATASIZE PUSH1 0x4 PUSH2 0x26E7 JUMP JUMPDEST PUSH2 0xD5F JUMP JUMPDEST PUSH1 0x40 MLOAD PUSH2 0x2DF SWAP2 SWAP1 PUSH2 0x278C JUMP JUMPDEST CALLVALUE DUP1 ISZERO PUSH2 0x54F JUMPI PUSH1 0x0 DUP1 REVERT JUMPDEST POP PUSH1 0x14 SLOAD PUSH2 0x2D3 SWAP1 PUSH1 0xFF AND DUP2 JUMP JUMPDEST CALLVALUE DUP1 ISZERO PUSH2 0x569 JUMPI PUSH1 0x0 DUP1 REVERT JUMPDEST POP PUSH2 0x2FD PUSH2 0xE25 JUMP JUMPDEST CALLVALUE DUP1 ISZERO PUSH2 0x57E JUMPI PUSH1 0x0 DUP1 REVERT JUMPDEST POP PUSH2 0x35A PUSH2 0x58D CALLDATASIZE PUSH1 0x4 PUSH2 0x2558 JUMP JUMPDEST PUSH2 0xE32 JUMP JUMPDEST CALLVALUE DUP1 ISZERO PUSH2 0x59E JUMPI PUSH1 0x0 DUP1 REVERT JUMPDEST POP PUSH1 0x14 SLOAD PUSH2 0x2D3 SWAP1 PUSH2 0x100 SWAP1 DIV PUSH1 0xFF AND DUP2 JUMP JUMPDEST CALLVALUE DUP1 ISZERO PUSH2 0x5BD JUMPI PUSH1 0x0 DUP1 REVERT JUMPDEST POP PUSH2 0x3AA PUSH2 0x5CC CALLDATASIZE PUSH1 0x4 PUSH2 0x253D JUMP JUMPDEST PUSH2 0xE44 JUMP JUMPDEST CALLVALUE DUP1 ISZERO PUSH2 0x5DD JUMPI PUSH1 0x0 DUP1 REVERT JUMPDEST POP PUSH2 0x392 PUSH2 0xE92 JUMP JUMPDEST CALLVALUE DUP1 ISZERO PUSH2 0x5F2 JUMPI PUSH1 0x0 DUP1 REVERT JUMPDEST POP PUSH2 0x392 PUSH2 0x601 CALLDATASIZE PUSH1 0x4 PUSH2 0x2558 JUMP JUMPDEST PUSH2 0xEC8 JUMP JUMPDEST CALLVALUE DUP1 ISZERO PUSH2 0x612 JUMPI PUSH1 0x0 DUP1 REVERT JUMPDEST POP PUSH2 0x392 PUSH2 0x621 CALLDATASIZE PUSH1 0x4 PUSH2 0x2638 JUMP JUMPDEST PUSH2 0xEF7 JUMP JUMPDEST CALLVALUE DUP1 ISZERO PUSH2 0x632 JUMPI PUSH1 0x0 DUP1 REVERT JUMPDEST POP PUSH2 0x646 PUSH2 0x641 CALLDATASIZE PUSH1 0x4 PUSH2 0x253D JUMP JUMPDEST PUSH2 0xF34 JUMP JUMPDEST PUSH1 0x40 MLOAD PUSH2 0x2DF SWAP2 SWAP1 PUSH2 0x27F6 JUMP JUMPDEST CALLVALUE DUP1 ISZERO PUSH2 0x65F JUMPI PUSH1 0x0 DUP1 REVERT JUMPDEST POP PUSH1 0x8 SLOAD PUSH1 0x1 PUSH1 0x1 PUSH1 0xA0 SHL SUB AND PUSH2 0x35A JUMP JUMPDEST CALLVALUE DUP1 ISZERO PUSH2 0x67D JUMPI PUSH1 0x0 DUP1 REVERT JUMPDEST POP PUSH2 0x3AA PUSH1 0x12 SLOAD DUP2 JUMP JUMPDEST CALLVALUE DUP1 ISZERO PUSH2 0x693 JUMPI PUSH1 0x0 DUP1 REVERT JUMPDEST POP PUSH2 0x2FD PUSH2 0x1081 JUMP JUMPDEST CALLVALUE DUP1 ISZERO PUSH2 0x6A8 JUMPI PUSH1 0x0 DUP1 REVERT JUMPDEST POP PUSH2 0x646 PUSH2 0x6B7 CALLDATASIZE PUSH1 0x4 PUSH2 0x282E JUMP JUMPDEST PUSH2 0x1090 JUMP JUMPDEST PUSH2 0x392 PUSH2 0x6CA CALLDATASIZE PUSH1 0x4 PUSH2 0x2558 JUMP JUMPDEST PUSH2 0x1256 JUMP JUMPDEST CALLVALUE DUP1 ISZERO PUSH2 0x6DB JUMPI PUSH1 0x0 DUP1 REVERT JUMPDEST POP PUSH2 0x392 PUSH2 0x6EA CALLDATASIZE PUSH1 0x4 PUSH2 0x2861 JUMP JUMPDEST PUSH2 0x1394 JUMP JUMPDEST CALLVALUE DUP1 ISZERO PUSH2 0x6FB JUMPI PUSH1 0x0 DUP1 REVERT JUMPDEST POP PUSH2 0x2FD PUSH2 0x142A JUMP JUMPDEST CALLVALUE DUP1 ISZERO PUSH2 0x710 JUMPI PUSH1 0x0 DUP1 REVERT JUMPDEST POP PUSH2 0x392 PUSH2 0x71F CALLDATASIZE PUSH1 0x4 PUSH2 0x2558 JUMP JUMPDEST PUSH2 0x1437 JUMP JUMPDEST CALLVALUE DUP1 ISZERO PUSH2 0x730 JUMPI PUSH1 0x0 DUP1 REVERT JUMPDEST POP PUSH2 0x392 PUSH2 0x73F CALLDATASIZE PUSH1 0x4 PUSH2 0x2690 JUMP JUMPDEST PUSH2 0x1466 JUMP JUMPDEST CALLVALUE DUP1 ISZERO PUSH2 0x750 JUMPI PUSH1 0x0 DUP1 REVERT JUMPDEST POP PUSH2 0x392 PUSH2 0x75F CALLDATASIZE PUSH1 0x4 PUSH2 0x2894 JUMP JUMPDEST PUSH2 0x14AA JUMP JUMPDEST CALLVALUE DUP1 ISZERO PUSH2 0x770 JUMPI PUSH1 0x0 DUP1 REVERT JUMPDEST POP PUSH2 0x3AA PUSH1 0x13 SLOAD DUP2 JUMP JUMPDEST CALLVALUE DUP1 ISZERO PUSH2 0x786 JUMPI PUSH1 0x0 DUP1 REVERT JUMPDEST POP PUSH2 0x79A PUSH2 0x795 CALLDATASIZE PUSH1 0x4 PUSH2 0x2558 JUMP JUMPDEST PUSH2 0x14EE JUMP JUMPDEST PUSH1 0x40 MLOAD PUSH2 0x2DF SWAP2 SWAP1 PUSH2 0x290F JUMP JUMPDEST CALLVALUE DUP1 ISZERO PUSH2 0x7B3 JUMPI PUSH1 0x0 DUP1 REVERT JUMPDEST POP PUSH2 0x2FD PUSH2 0x7C2 CALLDATASIZE PUSH1 0x4 PUSH2 0x2558 JUMP JUMPDEST PUSH2 0x15A8 JUMP JUMPDEST CALLVALUE DUP1 ISZERO PUSH2 0x7D3 JUMPI PUSH1 0x0 DUP1 REVERT JUMPDEST POP PUSH2 0x392 PUSH2 0x7E2 CALLDATASIZE PUSH1 0x4 PUSH2 0x2558 JUMP JUMPDEST PUSH2 0x1717 JUMP JUMPDEST PUSH2 0x392 PUSH2 0x7F5 CALLDATASIZE PUSH1 0x4 PUSH2 0x2944 JUMP JUMPDEST PUSH2 0x1746 JUMP JUMPDEST CALLVALUE DUP1 ISZERO PUSH2 0x806 JUMPI PUSH1 0x0 DUP1 REVERT JUMPDEST POP PUSH2 0x3AA PUSH1 0x11 SLOAD DUP2 JUMP JUMPDEST CALLVALUE DUP1 ISZERO PUSH2 0x81C JUMPI PUSH1 0x0 DUP1 REVERT JUMPDEST POP PUSH2 0x2D3 PUSH2 0x82B CALLDATASIZE PUSH1 0x4 PUSH2 0x253D JUMP JUMPDEST PUSH1 0xB PUSH1 0x20 MSTORE PUSH1 0x0 SWAP1 DUP2 MSTORE PUSH1 0x40 SWAP1 KECCAK256 SLOAD PUSH1 0xFF AND DUP2 JUMP JUMPDEST CALLVALUE DUP1 ISZERO PUSH2 0x84C JUMPI PUSH1 0x0 DUP1 REVERT JUMPDEST POP PUSH2 0x392 PUSH2 0x85B CALLDATASIZE PUSH1 0x4 PUSH2 0x2690 JUMP JUMPDEST PUSH2 0x19E1 JUMP JUMPDEST CALLVALUE DUP1 ISZERO PUSH2 0x86C JUMPI PUSH1 0x0 DUP1 REVERT JUMPDEST POP PUSH2 0x2D3 PUSH2 0x87B CALLDATASIZE PUSH1 0x4 PUSH2 0x29C2 JUMP JUMPDEST PUSH2 0x1A27 JUMP JUMPDEST CALLVALUE DUP1 ISZERO PUSH2 0x88C JUMPI PUSH1 0x0 DUP1 REVERT JUMPDEST POP PUSH2 0x392 PUSH2 0x89B CALLDATASIZE PUSH1 0x4 PUSH2 0x29EC JUMP JUMPDEST PUSH2 0x1A55 JUMP JUMPDEST CALLVALUE DUP1 ISZERO PUSH2 0x8AC JUMPI PUSH1 0x0 DUP1 REVERT JUMPDEST POP PUSH2 0x392 PUSH2 0x8BB CALLDATASIZE PUSH1 0x4 PUSH2 0x253D JUMP JUMPDEST PUSH2 0x1AF5 JUMP JUMPDEST PUSH1 0x0 PUSH1 0x1 PUSH1 0x1 PUSH1 0xE0 SHL SUB NOT DUP3 AND PUSH4 0x80AC58CD PUSH1 0xE0 SHL EQ DUP1 PUSH2 0x8F1 JUMPI POP PUSH1 0x1 PUSH1 0x1 PUSH1 0xE0 SHL SUB NOT DUP3 AND PUSH4 0x5B5E139F PUSH1 0xE0 SHL EQ JUMPDEST DUP1 PUSH2 0x90C JUMPI POP PUSH4 0x1FFC9A7 PUSH1 0xE0 SHL PUSH1 0x1 PUSH1 0x1 PUSH1 0xE0 SHL SUB NOT DUP4 AND EQ JUMPDEST SWAP3 SWAP2 POP POP JUMP JUMPDEST PUSH1 0x60 PUSH1 0x2 DUP1 SLOAD PUSH2 0x921 SWAP1 PUSH2 0x2A0F JUMP JUMPDEST DUP1 PUSH1 0x1F ADD PUSH1 0x20 DUP1 SWAP2 DIV MUL PUSH1 0x20 ADD PUSH1 0x40 MLOAD SWAP1 DUP2 ADD PUSH1 0x40 MSTORE DUP1 SWAP3 SWAP2 SWAP1 DUP2 DUP2 MSTORE PUSH1 0x20 ADD DUP3 DUP1 SLOAD PUSH2 0x94D SWAP1 PUSH2 0x2A0F JUMP JUMPDEST DUP1 ISZERO PUSH2 0x99A JUMPI DUP1 PUSH1 0x1F LT PUSH2 0x96F JUMPI PUSH2 0x100 DUP1 DUP4 SLOAD DIV MUL DUP4 MSTORE SWAP2 PUSH1 0x20 ADD SWAP2 PUSH2 0x99A JUMP JUMPDEST DUP3 ADD SWAP2 SWAP1 PUSH1 0x0 MSTORE PUSH1 0x20 PUSH1 0x0 KECCAK256 SWAP1 JUMPDEST DUP2 SLOAD DUP2 MSTORE SWAP1 PUSH1 0x1 ADD SWAP1 PUSH1 0x20 ADD DUP1 DUP4 GT PUSH2 0x97D JUMPI DUP3 SWAP1 SUB PUSH1 0x1F AND DUP3 ADD SWAP2 JUMPDEST POP POP POP POP POP SWAP1 POP SWAP1 JUMP JUMPDEST PUSH1 0x0 PUSH2 0x9AF DUP3 PUSH2 0x1B90 JUMP JUMPDEST PUSH2 0x9CC JUMPI PUSH1 0x40 MLOAD PUSH4 0x33D1C039 PUSH1 0xE2 SHL DUP2 MSTORE PUSH1 0x4 ADD PUSH1 0x40 MLOAD DUP1 SWAP2 SUB SWAP1 REVERT JUMPDEST POP PUSH1 0x0 SWAP1 DUP2 MSTORE PUSH1 0x6 PUSH1 0x20 MSTORE PUSH1 0x40 SWAP1 KECCAK256 SLOAD PUSH1 0x1 PUSH1 0x1 PUSH1 0xA0 SHL SUB AND SWAP1 JUMP JUMPDEST PUSH1 0x0 PUSH2 0x9F3 DUP3 PUSH2 0xE32 JUMP JUMPDEST SWAP1 POP DUP1 PUSH1 0x1 PUSH1 0x1 PUSH1 0xA0 SHL SUB AND DUP4 PUSH1 0x1 PUSH1 0x1 PUSH1 0xA0 SHL SUB AND EQ ISZERO PUSH2 0xA28 JUMPI PUSH1 0x40 MLOAD PUSH4 0x250FDEE3 PUSH1 0xE2 SHL DUP2 MSTORE PUSH1 0x4 ADD PUSH1 0x40 MLOAD DUP1 SWAP2 SUB SWAP1 REVERT JUMPDEST CALLER PUSH1 0x1 PUSH1 0x1 PUSH1 0xA0 SHL SUB DUP3 AND EQ PUSH2 0xA5F JUMPI PUSH2 0xA42 DUP2 CALLER PUSH2 0x1A27 JUMP JUMPDEST PUSH2 0xA5F JUMPI PUSH1 0x40 MLOAD PUSH4 0x67D9DCA1 PUSH1 0xE1 SHL DUP2 MSTORE PUSH1 0x4 ADD PUSH1 0x40 MLOAD DUP1 SWAP2 SUB SWAP1 REVERT JUMPDEST PUSH2 0xA6A DUP4 DUP4 DUP4 PUSH2 0x1BC9 JUMP JUMPDEST POP POP POP JUMP JUMPDEST PUSH1 0x8 SLOAD PUSH1 0x1 PUSH1 0x1 PUSH1 0xA0 SHL SUB AND CALLER EQ PUSH2 0xAA2 JUMPI PUSH1 0x40 MLOAD PUSH3 0x461BCD PUSH1 0xE5 SHL DUP2 MSTORE PUSH1 0x4 ADD PUSH2 0xA99 SWAP1 PUSH2 0x2A4A JUMP JUMPDEST PUSH1 0x40 MLOAD DUP1 SWAP2 SUB SWAP1 REVERT JUMPDEST DUP1 MLOAD PUSH2 0xAB5 SWAP1 PUSH1 0xE SWAP1 PUSH1 0x20 DUP5 ADD SWAP1 PUSH2 0x23EA JUMP JUMPDEST POP POP JUMP JUMPDEST PUSH1 0x8 SLOAD PUSH1 0x1 PUSH1 0x1 PUSH1 0xA0 SHL SUB AND CALLER EQ PUSH2 0xAE3 JUMPI PUSH1 0x40 MLOAD PUSH3 0x461BCD PUSH1 0xE5 SHL DUP2 MSTORE PUSH1 0x4 ADD PUSH2 0xA99 SWAP1 PUSH2 0x2A4A JUMP JUMPDEST PUSH1 0x14 DUP1 SLOAD PUSH1 0xFF NOT AND SWAP2 ISZERO ISZERO SWAP2 SWAP1 SWAP2 OR SWAP1 SSTORE JUMP JUMPDEST PUSH2 0xA6A DUP4 DUP4 DUP4 PUSH2 0x1C25 JUMP JUMPDEST PUSH1 0x8 SLOAD PUSH1 0x1 PUSH1 0x1 PUSH1 0xA0 SHL SUB AND CALLER EQ PUSH2 0xB2B JUMPI PUSH1 0x40 MLOAD PUSH3 0x461BCD PUSH1 0xE5 SHL DUP2 MSTORE PUSH1 0x4 ADD PUSH2 0xA99 SWAP1 PUSH2 0x2A4A JUMP JUMPDEST PUSH1 0x2 PUSH1 0x9 SLOAD EQ ISZERO PUSH2 0xB7E JUMPI PUSH1 0x40 MLOAD PUSH3 0x461BCD PUSH1 0xE5 SHL DUP2 MSTORE PUSH1 0x20 PUSH1 0x4 DUP3 ADD MSTORE PUSH1 0x1F PUSH1 0x24 DUP3 ADD MSTORE PUSH32 0x5265656E7472616E637947756172643A207265656E7472616E742063616C6C00 PUSH1 0x44 DUP3 ADD MSTORE PUSH1 0x64 ADD PUSH2 0xA99 JUMP JUMPDEST PUSH1 0x2 PUSH1 0x9 SSTORE PUSH1 0x0 PUSH2 0xB97 PUSH1 0x8 SLOAD PUSH1 0x1 PUSH1 0x1 PUSH1 0xA0 SHL SUB AND SWAP1 JUMP JUMPDEST PUSH1 0x1 PUSH1 0x1 PUSH1 0xA0 SHL SUB AND SELFBALANCE PUSH1 0x40 MLOAD PUSH1 0x0 PUSH1 0x40 MLOAD DUP1 DUP4 SUB DUP2 DUP6 DUP8 GAS CALL SWAP3 POP POP POP RETURNDATASIZE DUP1 PUSH1 0x0 DUP2 EQ PUSH2 0xBE1 JUMPI PUSH1 0x40 MLOAD SWAP2 POP PUSH1 0x1F NOT PUSH1 0x3F RETURNDATASIZE ADD AND DUP3 ADD PUSH1 0x40 MSTORE RETURNDATASIZE DUP3 MSTORE RETURNDATASIZE PUSH1 0x0 PUSH1 0x20 DUP5 ADD RETURNDATACOPY PUSH2 0xBE6 JUMP JUMPDEST PUSH1 0x60 SWAP2 POP JUMPDEST POP POP SWAP1 POP DUP1 PUSH2 0xBF4 JUMPI PUSH1 0x0 DUP1 REVERT JUMPDEST POP PUSH1 0x1 PUSH1 0x9 SSTORE JUMP JUMPDEST PUSH2 0xA6A DUP4 DUP4 DUP4 PUSH1 0x40 MLOAD DUP1 PUSH1 0x20 ADD PUSH1 0x40 MSTORE DUP1 PUSH1 0x0 DUP2 MSTORE POP PUSH2 0x14AA JUMP JUMPDEST PUSH1 0x8 SLOAD PUSH1 0x1 PUSH1 0x1 PUSH1 0xA0 SHL SUB AND CALLER EQ PUSH2 0xC41 JUMPI PUSH1 0x40 MLOAD PUSH3 0x461BCD PUSH1 0xE5 SHL DUP2 MSTORE PUSH1 0x4 ADD PUSH2 0xA99 SWAP1 PUSH2 0x2A4A JUMP JUMPDEST PUSH1 0x1 PUSH1 0x1 PUSH1 0xA0 SHL SUB AND PUSH1 0x0 SWAP1 DUP2 MSTORE PUSH1 0xC PUSH1 0x20 MSTORE PUSH1 0x40 SWAP1 KECCAK256 DUP1 SLOAD PUSH1 0xFF NOT AND PUSH1 0x1 OR SWAP1 SSTORE JUMP JUMPDEST PUSH1 0x8 SLOAD PUSH1 0x1 PUSH1 0x1 PUSH1 0xA0 SHL SUB AND CALLER EQ PUSH2 0xC8F JUMPI PUSH1 0x40 MLOAD PUSH3 0x461BCD PUSH1 0xE5 SHL DUP2 MSTORE PUSH1 0x4 ADD PUSH2 0xA99 SWAP1 PUSH2 0x2A4A JUMP JUMPDEST PUSH1 0x10 SSTORE JUMP JUMPDEST PUSH1 0x8 SLOAD PUSH1 0x1 PUSH1 0x1 PUSH1 0xA0 SHL SUB AND CALLER EQ PUSH2 0xCBE JUMPI PUSH1 0x40 MLOAD PUSH3 0x461BCD PUSH1 0xE5 SHL DUP2 MSTORE PUSH1 0x4 ADD PUSH2 0xA99 SWAP1 PUSH2 0x2A4A JUMP JUMPDEST DUP1 MLOAD PUSH2 0xAB5 SWAP1 PUSH1 0xF SWAP1 PUSH1 0x20 DUP5 ADD SWAP1 PUSH2 0x23EA JUMP JUMPDEST PUSH1 0xE DUP1 SLOAD PUSH2 0xCDE SWAP1 PUSH2 0x2A0F JUMP JUMPDEST DUP1 PUSH1 0x1F ADD PUSH1 0x20 DUP1 SWAP2 DIV MUL PUSH1 0x20 ADD PUSH1 0x40 MLOAD SWAP1 DUP2 ADD PUSH1 0x40 MSTORE DUP1 SWAP3 SWAP2 SWAP1 DUP2 DUP2 MSTORE PUSH1 0x20 ADD DUP3 DUP1 SLOAD PUSH2 0xD0A SWAP1 PUSH2 0x2A0F JUMP JUMPDEST DUP1 ISZERO PUSH2 0xD57 JUMPI DUP1 PUSH1 0x1F LT PUSH2 0xD2C JUMPI PUSH2 0x100 DUP1 DUP4 SLOAD DIV MUL DUP4 MSTORE SWAP2 PUSH1 0x20 ADD SWAP2 PUSH2 0xD57 JUMP JUMPDEST DUP3 ADD SWAP2 SWAP1 PUSH1 0x0 MSTORE PUSH1 0x20 PUSH1 0x0 KECCAK256 SWAP1 JUMPDEST DUP2 SLOAD DUP2 MSTORE SWAP1 PUSH1 0x1 ADD SWAP1 PUSH1 0x20 ADD DUP1 DUP4 GT PUSH2 0xD3A JUMPI DUP3 SWAP1 SUB PUSH1 0x1F AND DUP3 ADD SWAP2 JUMPDEST POP POP POP POP POP DUP2 JUMP JUMPDEST DUP1 MLOAD PUSH1 0x60 SWAP1 PUSH1 0x0 DUP2 PUSH1 0x1 PUSH1 0x1 PUSH1 0x40 SHL SUB DUP2 GT ISZERO PUSH2 0xD7E JUMPI PUSH2 0xD7E PUSH2 0x259B JUMP JUMPDEST PUSH1 0x40 MLOAD SWAP1 DUP1 DUP3 MSTORE DUP1 PUSH1 0x20 MUL PUSH1 0x20 ADD DUP3 ADD PUSH1 0x40 MSTORE DUP1 ISZERO PUSH2 0xDC9 JUMPI DUP2 PUSH1 0x20 ADD JUMPDEST PUSH1 0x40 DUP1 MLOAD PUSH1 0x60 DUP2 ADD DUP3 MSTORE PUSH1 0x0 DUP1 DUP3 MSTORE PUSH1 0x20 DUP1 DUP4 ADD DUP3 SWAP1 MSTORE SWAP3 DUP3 ADD MSTORE DUP3 MSTORE PUSH1 0x0 NOT SWAP1 SWAP3 ADD SWAP2 ADD DUP2 PUSH2 0xD9C JUMPI SWAP1 POP JUMPDEST POP SWAP1 POP PUSH1 0x0 JUMPDEST DUP3 DUP2 EQ PUSH2 0xE1D JUMPI PUSH2 0xDF8 DUP6 DUP3 DUP2 MLOAD DUP2 LT PUSH2 0xDEB JUMPI PUSH2 0xDEB PUSH2 0x2A7F JUMP JUMPDEST PUSH1 0x20 MUL PUSH1 0x20 ADD ADD MLOAD PUSH2 0x14EE JUMP JUMPDEST DUP3 DUP3 DUP2 MLOAD DUP2 LT PUSH2 0xE0A JUMPI PUSH2 0xE0A PUSH2 0x2A7F JUMP JUMPDEST PUSH1 0x20 SWAP1 DUP2 MUL SWAP2 SWAP1 SWAP2 ADD ADD MSTORE PUSH1 0x1 ADD PUSH2 0xDCF JUMP JUMPDEST POP SWAP4 SWAP3 POP POP POP JUMP JUMPDEST PUSH1 0xD DUP1 SLOAD PUSH2 0xCDE SWAP1 PUSH2 0x2A0F JUMP JUMPDEST PUSH1 0x0 PUSH2 0xE3D DUP3 PUSH2 0x1E12 JUMP JUMPDEST MLOAD SWAP3 SWAP2 POP POP JUMP JUMPDEST PUSH1 0x0 PUSH1 0x1 PUSH1 0x1 PUSH1 0xA0 SHL SUB DUP3 AND PUSH2 0xE6D JUMPI PUSH1 0x40 MLOAD PUSH4 0x23D3AD81 PUSH1 0xE2 SHL DUP2 MSTORE PUSH1 0x4 ADD PUSH1 0x40 MLOAD DUP1 SWAP2 SUB SWAP1 REVERT JUMPDEST POP PUSH1 0x1 PUSH1 0x1 PUSH1 0xA0 SHL SUB AND PUSH1 0x0 SWAP1 DUP2 MSTORE PUSH1 0x5 PUSH1 0x20 MSTORE PUSH1 0x40 SWAP1 KECCAK256 SLOAD PUSH1 0x1 PUSH1 0x1 PUSH1 0x40 SHL SUB AND SWAP1 JUMP JUMPDEST PUSH1 0x8 SLOAD PUSH1 0x1 PUSH1 0x1 PUSH1 0xA0 SHL SUB AND CALLER EQ PUSH2 0xEBC JUMPI PUSH1 0x40 MLOAD PUSH3 0x461BCD PUSH1 0xE5 SHL DUP2 MSTORE PUSH1 0x4 ADD PUSH2 0xA99 SWAP1 PUSH2 0x2A4A JUMP JUMPDEST PUSH2 0xEC6 PUSH1 0x0 PUSH2 0x1F34 JUMP JUMPDEST JUMP JUMPDEST PUSH1 0x8 SLOAD PUSH1 0x1 PUSH1 0x1 PUSH1 0xA0 SHL SUB AND CALLER EQ PUSH2 0xEF2 JUMPI PUSH1 0x40 MLOAD PUSH3 0x461BCD PUSH1 0xE5 SHL DUP2 MSTORE PUSH1 0x4 ADD PUSH2 0xA99 SWAP1 PUSH2 0x2A4A JUMP JUMPDEST PUSH1 0xA SSTORE JUMP JUMPDEST PUSH1 0x8 SLOAD PUSH1 0x1 PUSH1 0x1 PUSH1 0xA0 SHL SUB AND CALLER EQ PUSH2 0xF21 JUMPI PUSH1 0x40 MLOAD PUSH3 0x461BCD PUSH1 0xE5 SHL DUP2 MSTORE PUSH1 0x4 ADD PUSH2 0xA99 SWAP1 PUSH2 0x2A4A JUMP JUMPDEST DUP1 MLOAD PUSH2 0xAB5 SWAP1 PUSH1 0xD SWAP1 PUSH1 0x20 DUP5 ADD SWAP1 PUSH2 0x23EA JUMP JUMPDEST PUSH1 0x60 PUSH1 0x0 DUP1 PUSH1 0x0 PUSH2 0xF44 DUP6 PUSH2 0xE44 JUMP JUMPDEST SWAP1 POP PUSH1 0x0 DUP2 PUSH1 0x1 PUSH1 0x1 PUSH1 0x40 SHL SUB DUP2 GT ISZERO PUSH2 0xF60 JUMPI PUSH2 0xF60 PUSH2 0x259B JUMP JUMPDEST PUSH1 0x40 MLOAD SWAP1 DUP1 DUP3 MSTORE DUP1 PUSH1 0x20 MUL PUSH1 0x20 ADD DUP3 ADD PUSH1 0x40 MSTORE DUP1 ISZERO PUSH2 0xF89 JUMPI DUP2 PUSH1 0x20 ADD PUSH1 0x20 DUP3 MUL DUP1 CALLDATASIZE DUP4 CALLDATACOPY ADD SWAP1 POP JUMPDEST POP SWAP1 POP PUSH2 0xFAF PUSH1 0x40 DUP1 MLOAD PUSH1 0x60 DUP2 ADD DUP3 MSTORE PUSH1 0x0 DUP1 DUP3 MSTORE PUSH1 0x20 DUP3 ADD DUP2 SWAP1 MSTORE SWAP2 DUP2 ADD SWAP2 SWAP1 SWAP2 MSTORE SWAP1 JUMP JUMPDEST PUSH1 0x1 JUMPDEST DUP4 DUP7 EQ PUSH2 0x1075 JUMPI PUSH1 0x0 DUP2 DUP2 MSTORE PUSH1 0x4 PUSH1 0x20 SWAP1 DUP2 MSTORE PUSH1 0x40 SWAP2 DUP3 SWAP1 KECCAK256 DUP3 MLOAD PUSH1 0x60 DUP2 ADD DUP5 MSTORE SWAP1 SLOAD PUSH1 0x1 PUSH1 0x1 PUSH1 0xA0 SHL SUB DUP2 AND DUP3 MSTORE PUSH1 0x1 PUSH1 0xA0 SHL DUP2 DIV PUSH1 0x1 PUSH1 0x1 PUSH1 0x40 SHL SUB AND SWAP3 DUP3 ADD SWAP3 SWAP1 SWAP3 MSTORE PUSH1 0x1 PUSH1 0xE0 SHL SWAP1 SWAP2 DIV PUSH1 0xFF AND ISZERO DUP1 ISZERO SWAP3 DUP3 ADD SWAP3 SWAP1 SWAP3 MSTORE SWAP3 POP PUSH2 0x1018 JUMPI PUSH2 0x106D JUMP JUMPDEST DUP2 MLOAD PUSH1 0x1 PUSH1 0x1 PUSH1 0xA0 SHL SUB AND ISZERO PUSH2 0x102D JUMPI DUP2 MLOAD SWAP5 POP JUMPDEST DUP8 PUSH1 0x1 PUSH1 0x1 PUSH1 0xA0 SHL SUB AND DUP6 PUSH1 0x1 PUSH1 0x1 PUSH1 0xA0 SHL SUB AND EQ ISZERO PUSH2 0x106D JUMPI DUP1 DUP4 DUP8 DUP1 PUSH1 0x1 ADD SWAP9 POP DUP2 MLOAD DUP2 LT PUSH2 0x1060 JUMPI PUSH2 0x1060 PUSH2 0x2A7F JUMP JUMPDEST PUSH1 0x20 MUL PUSH1 0x20 ADD ADD DUP2 DUP2 MSTORE POP POP JUMPDEST PUSH1 0x1 ADD PUSH2 0xFB2 JUMP JUMPDEST POP SWAP1 SWAP7 SWAP6 POP POP POP POP POP POP JUMP JUMPDEST PUSH1 0x60 PUSH1 0x3 DUP1 SLOAD PUSH2 0x921 SWAP1 PUSH2 0x2A0F JUMP JUMPDEST PUSH1 0x60 DUP2 DUP4 LT PUSH2 0x10B2 JUMPI PUSH1 0x40 MLOAD PUSH4 0x1960CCAD PUSH1 0xE1 SHL DUP2 MSTORE PUSH1 0x4 ADD PUSH1 0x40 MLOAD DUP1 SWAP2 SUB SWAP1 REVERT JUMPDEST PUSH1 0x0 DUP1 SLOAD PUSH1 0x1 DUP6 LT ISZERO PUSH2 0x10C4 JUMPI PUSH1 0x1 SWAP5 POP JUMPDEST DUP1 DUP5 GT ISZERO PUSH2 0x10D0 JUMPI DUP1 SWAP4 POP JUMPDEST PUSH1 0x0 PUSH2 0x10DB DUP8 PUSH2 0xE44 JUMP JUMPDEST SWAP1 POP DUP5 DUP7 LT ISZERO PUSH2 0x10FA JUMPI DUP6 DUP6 SUB DUP2 DUP2 LT ISZERO PUSH2 0x10F4 JUMPI DUP1 SWAP2 POP JUMPDEST POP PUSH2 0x10FE JUMP JUMPDEST POP PUSH1 0x0 JUMPDEST PUSH1 0x0 DUP2 PUSH1 0x1 PUSH1 0x1 PUSH1 0x40 SHL SUB DUP2 GT ISZERO PUSH2 0x1118 JUMPI PUSH2 0x1118 PUSH2 0x259B JUMP JUMPDEST PUSH1 0x40 MLOAD SWAP1 DUP1 DUP3 MSTORE DUP1 PUSH1 0x20 MUL PUSH1 0x20 ADD DUP3 ADD PUSH1 0x40 MSTORE DUP1 ISZERO PUSH2 0x1141 JUMPI DUP2 PUSH1 0x20 ADD PUSH1 0x20 DUP3 MUL DUP1 CALLDATASIZE DUP4 CALLDATACOPY ADD SWAP1 POP JUMPDEST POP SWAP1 POP DUP2 PUSH2 0x1154 JUMPI SWAP4 POP PUSH2 0x124F SWAP3 POP POP POP JUMP JUMPDEST PUSH1 0x0 PUSH2 0x115F DUP9 PUSH2 0x14EE JUMP JUMPDEST SWAP1 POP PUSH1 0x0 DUP2 PUSH1 0x40 ADD MLOAD PUSH2 0x1170 JUMPI POP DUP1 MLOAD JUMPDEST DUP9 JUMPDEST DUP9 DUP2 EQ ISZERO DUP1 ISZERO PUSH2 0x1182 JUMPI POP DUP5 DUP8 EQ ISZERO JUMPDEST ISZERO PUSH2 0x1243 JUMPI PUSH1 0x0 DUP2 DUP2 MSTORE PUSH1 0x4 PUSH1 0x20 SWAP1 DUP2 MSTORE PUSH1 0x40 SWAP2 DUP3 SWAP1 KECCAK256 DUP3 MLOAD PUSH1 0x60 DUP2 ADD DUP5 MSTORE SWAP1 SLOAD PUSH1 0x1 PUSH1 0x1 PUSH1 0xA0 SHL SUB DUP2 AND DUP3 MSTORE PUSH1 0x1 PUSH1 0xA0 SHL DUP2 DIV PUSH1 0x1 PUSH1 0x1 PUSH1 0x40 SHL SUB AND SWAP3 DUP3 ADD SWAP3 SWAP1 SWAP3 MSTORE PUSH1 0x1 PUSH1 0xE0 SHL SWAP1 SWAP2 DIV PUSH1 0xFF AND ISZERO DUP1 ISZERO SWAP3 DUP3 ADD SWAP3 SWAP1 SWAP3 MSTORE SWAP4 POP PUSH2 0x11E6 JUMPI PUSH2 0x123B JUMP JUMPDEST DUP3 MLOAD PUSH1 0x1 PUSH1 0x1 PUSH1 0xA0 SHL SUB AND ISZERO PUSH2 0x11FB JUMPI DUP3 MLOAD SWAP2 POP JUMPDEST DUP11 PUSH1 0x1 PUSH1 0x1 PUSH1 0xA0 SHL SUB AND DUP3 PUSH1 0x1 PUSH1 0x1 PUSH1 0xA0 SHL SUB AND EQ ISZERO PUSH2 0x123B JUMPI DUP1 DUP5 DUP9 DUP1 PUSH1 0x1 ADD SWAP10 POP DUP2 MLOAD DUP2 LT PUSH2 0x122E JUMPI PUSH2 0x122E PUSH2 0x2A7F JUMP JUMPDEST PUSH1 0x20 MUL PUSH1 0x20 ADD ADD DUP2 DUP2 MSTORE POP POP JUMPDEST PUSH1 0x1 ADD PUSH2 0x1172 JUMP JUMPDEST POP POP POP SWAP3 DUP4 MSTORE POP SWAP1 SWAP2 POP POP JUMPDEST SWAP4 SWAP3 POP POP POP JUMP JUMPDEST DUP1 PUSH1 0x0 DUP2 GT DUP1 ISZERO PUSH2 0x1269 JUMPI POP PUSH1 0x12 SLOAD DUP2 GT ISZERO JUMPDEST PUSH2 0x1285 JUMPI PUSH1 0x40 MLOAD PUSH3 0x461BCD PUSH1 0xE5 SHL DUP2 MSTORE PUSH1 0x4 ADD PUSH2 0xA99 SWAP1 PUSH2 0x2A95 JUMP JUMPDEST PUSH1 0x11 SLOAD DUP2 PUSH2 0x129A PUSH1 0x1 SLOAD PUSH1 0x0 SLOAD SUB PUSH1 0x0 NOT ADD SWAP1 JUMP JUMPDEST PUSH2 0x12A4 SWAP2 SWAP1 PUSH2 0x2AD9 JUMP JUMPDEST GT ISZERO PUSH2 0x12C2 JUMPI PUSH1 0x40 MLOAD PUSH3 0x461BCD PUSH1 0xE5 SHL DUP2 MSTORE PUSH1 0x4 ADD PUSH2 0xA99 SWAP1 PUSH2 0x2AF1 JUMP JUMPDEST DUP2 DUP1 PUSH1 0x10 SLOAD PUSH2 0x12D1 SWAP2 SWAP1 PUSH2 0x2B1F JUMP JUMPDEST CALLVALUE LT ISZERO PUSH2 0x1316 JUMPI PUSH1 0x40 MLOAD PUSH3 0x461BCD PUSH1 0xE5 SHL DUP2 MSTORE PUSH1 0x20 PUSH1 0x4 DUP3 ADD MSTORE PUSH1 0x13 PUSH1 0x24 DUP3 ADD MSTORE PUSH19 0x496E73756666696369656E742066756E647321 PUSH1 0x68 SHL PUSH1 0x44 DUP3 ADD MSTORE PUSH1 0x64 ADD PUSH2 0xA99 JUMP JUMPDEST PUSH1 0x14 SLOAD PUSH1 0xFF AND ISZERO PUSH2 0x1369 JUMPI PUSH1 0x40 MLOAD PUSH3 0x461BCD PUSH1 0xE5 SHL DUP2 MSTORE PUSH1 0x20 PUSH1 0x4 DUP3 ADD MSTORE PUSH1 0x17 PUSH1 0x24 DUP3 ADD MSTORE PUSH32 0x54686520636F6E74726163742069732070617573656421000000000000000000 PUSH1 0x44 DUP3 ADD MSTORE PUSH1 0x64 ADD PUSH2 0xA99 JUMP JUMPDEST PUSH1 0x0 PUSH2 0x1374 CALLER PUSH2 0xE44 JUMP JUMPDEST SWAP1 POP PUSH1 0x13 SLOAD DUP2 LT PUSH2 0x1384 JUMPI PUSH1 0x0 DUP1 REVERT JUMPDEST PUSH2 0x138E CALLER DUP6 PUSH2 0x1F86 JUMP JUMPDEST POP POP POP POP JUMP JUMPDEST PUSH1 0x1 PUSH1 0x1 PUSH1 0xA0 SHL SUB DUP3 AND CALLER EQ ISZERO PUSH2 0x13BE JUMPI PUSH1 0x40 MLOAD PUSH4 0xB06307DB PUSH1 0xE0 SHL DUP2 MSTORE PUSH1 0x4 ADD PUSH1 0x40 MLOAD DUP1 SWAP2 SUB SWAP1 REVERT JUMPDEST CALLER PUSH1 0x0 DUP2 DUP2 MSTORE PUSH1 0x7 PUSH1 0x20 SWAP1 DUP2 MSTORE PUSH1 0x40 DUP1 DUP4 KECCAK256 PUSH1 0x1 PUSH1 0x1 PUSH1 0xA0 SHL SUB DUP8 AND DUP1 DUP6 MSTORE SWAP1 DUP4 MSTORE SWAP3 DUP2 SWAP1 KECCAK256 DUP1 SLOAD PUSH1 0xFF NOT AND DUP7 ISZERO ISZERO SWAP1 DUP2 OR SWAP1 SWAP2 SSTORE SWAP1 MLOAD SWAP1 DUP2 MSTORE SWAP2 SWAP3 SWAP2 PUSH32 0x17307EAB39AB6107E8899845AD3D59BD9653F200F220920489CA2B5937696C31 SWAP2 ADD PUSH1 0x40 MLOAD DUP1 SWAP2 SUB SWAP1 LOG3 POP POP JUMP JUMPDEST PUSH1 0xF DUP1 SLOAD PUSH2 0xCDE SWAP1 PUSH2 0x2A0F JUMP JUMPDEST PUSH1 0x8 SLOAD PUSH1 0x1 PUSH1 0x1 PUSH1 0xA0 SHL SUB AND CALLER EQ PUSH2 0x1461 JUMPI PUSH1 0x40 MLOAD PUSH3 0x461BCD PUSH1 0xE5 SHL DUP2 MSTORE PUSH1 0x4 ADD PUSH2 0xA99 SWAP1 PUSH2 0x2A4A JUMP JUMPDEST PUSH1 0x12 SSTORE JUMP JUMPDEST PUSH1 0x8 SLOAD PUSH1 0x1 PUSH1 0x1 PUSH1 0xA0 SHL SUB AND CALLER EQ PUSH2 0x1490 JUMPI PUSH1 0x40 MLOAD PUSH3 0x461BCD PUSH1 0xE5 SHL DUP2 MSTORE PUSH1 0x4 ADD PUSH2 0xA99 SWAP1 PUSH2 0x2A4A JUMP JUMPDEST PUSH1 0x14 DUP1 SLOAD SWAP2 ISZERO ISZERO PUSH2 0x100 MUL PUSH2 0xFF00 NOT SWAP1 SWAP3 AND SWAP2 SWAP1 SWAP2 OR SWAP1 SSTORE JUMP JUMPDEST PUSH2 0x14B5 DUP5 DUP5 DUP5 PUSH2 0x1C25 JUMP JUMPDEST PUSH1 0x1 PUSH1 0x1 PUSH1 0xA0 SHL SUB DUP4 AND EXTCODESIZE ISZERO PUSH2 0x138E JUMPI PUSH2 0x14D1 DUP5 DUP5 DUP5 DUP5 PUSH2 0x1FA0 JUMP JUMPDEST PUSH2 0x138E JUMPI PUSH1 0x40 MLOAD PUSH4 0x68D2BF6B PUSH1 0xE1 SHL DUP2 MSTORE PUSH1 0x4 ADD PUSH1 0x40 MLOAD DUP1 SWAP2 SUB SWAP1 REVERT JUMPDEST PUSH1 0x40 DUP1 MLOAD PUSH1 0x60 DUP1 DUP3 ADD DUP4 MSTORE PUSH1 0x0 DUP1 DUP4 MSTORE PUSH1 0x20 DUP1 DUP5 ADD DUP3 SWAP1 MSTORE DUP4 DUP6 ADD DUP3 SWAP1 MSTORE DUP5 MLOAD SWAP3 DUP4 ADD DUP6 MSTORE DUP2 DUP4 MSTORE DUP3 ADD DUP2 SWAP1 MSTORE SWAP3 DUP2 ADD SWAP3 SWAP1 SWAP3 MSTORE SWAP1 PUSH1 0x1 DUP4 LT DUP1 PUSH2 0x1534 JUMPI POP PUSH1 0x0 SLOAD DUP4 LT ISZERO JUMPDEST ISZERO PUSH2 0x153F JUMPI SWAP3 SWAP2 POP POP JUMP JUMPDEST POP PUSH1 0x0 DUP3 DUP2 MSTORE PUSH1 0x4 PUSH1 0x20 SWAP1 DUP2 MSTORE PUSH1 0x40 SWAP2 DUP3 SWAP1 KECCAK256 DUP3 MLOAD PUSH1 0x60 DUP2 ADD DUP5 MSTORE SWAP1 SLOAD PUSH1 0x1 PUSH1 0x1 PUSH1 0xA0 SHL SUB DUP2 AND DUP3 MSTORE PUSH1 0x1 PUSH1 0xA0 SHL DUP2 DIV PUSH1 0x1 PUSH1 0x1 PUSH1 0x40 SHL SUB AND SWAP3 DUP3 ADD SWAP3 SWAP1 SWAP3 MSTORE PUSH1 0x1 PUSH1 0xE0 SHL SWAP1 SWAP2 DIV PUSH1 0xFF AND ISZERO DUP1 ISZERO SWAP3 DUP3 ADD SWAP3 SWAP1 SWAP3 MSTORE SWAP1 PUSH2 0x159F JUMPI SWAP3 SWAP2 POP POP JUMP JUMPDEST PUSH2 0x124F DUP4 PUSH2 0x1E12 JUMP JUMPDEST PUSH1 0x60 PUSH2 0x15B3 DUP3 PUSH2 0x1B90 JUMP JUMPDEST PUSH2 0x1617 JUMPI PUSH1 0x40 MLOAD PUSH3 0x461BCD PUSH1 0xE5 SHL DUP2 MSTORE PUSH1 0x20 PUSH1 0x4 DUP3 ADD MSTORE PUSH1 0x2F PUSH1 0x24 DUP3 ADD MSTORE PUSH32 0x4552433732314D657461646174613A2055524920717565727920666F72206E6F PUSH1 0x44 DUP3 ADD MSTORE PUSH15 0x3732BC34B9BA32B73A103A37B5B2B7 PUSH1 0x89 SHL PUSH1 0x64 DUP3 ADD MSTORE PUSH1 0x84 ADD PUSH2 0xA99 JUMP JUMPDEST PUSH1 0x14 SLOAD PUSH3 0x10000 SWAP1 DIV PUSH1 0xFF AND PUSH2 0x16B9 JUMPI PUSH1 0xF DUP1 SLOAD PUSH2 0x1634 SWAP1 PUSH2 0x2A0F JUMP JUMPDEST DUP1 PUSH1 0x1F ADD PUSH1 0x20 DUP1 SWAP2 DIV MUL PUSH1 0x20 ADD PUSH1 0x40 MLOAD SWAP1 DUP2 ADD PUSH1 0x40 MSTORE DUP1 SWAP3 SWAP2 SWAP1 DUP2 DUP2 MSTORE PUSH1 0x20 ADD DUP3 DUP1 SLOAD PUSH2 0x1660 SWAP1 PUSH2 0x2A0F JUMP JUMPDEST DUP1 ISZERO PUSH2 0x16AD JUMPI DUP1 PUSH1 0x1F LT PUSH2 0x1682 JUMPI PUSH2 0x100 DUP1 DUP4 SLOAD DIV MUL DUP4 MSTORE SWAP2 PUSH1 0x20 ADD SWAP2 PUSH2 0x16AD JUMP JUMPDEST DUP3 ADD SWAP2 SWAP1 PUSH1 0x0 MSTORE PUSH1 0x20 PUSH1 0x0 KECCAK256 SWAP1 JUMPDEST DUP2 SLOAD DUP2 MSTORE SWAP1 PUSH1 0x1 ADD SWAP1 PUSH1 0x20 ADD DUP1 DUP4 GT PUSH2 0x1690 JUMPI DUP3 SWAP1 SUB PUSH1 0x1F AND DUP3 ADD SWAP2 JUMPDEST POP POP POP POP POP SWAP1 POP SWAP2 SWAP1 POP JUMP JUMPDEST PUSH1 0x0 PUSH2 0x16C3 PUSH2 0x2098 JUMP JUMPDEST SWAP1 POP PUSH1 0x0 DUP2 MLOAD GT PUSH2 0x16E3 JUMPI PUSH1 0x40 MLOAD DUP1 PUSH1 0x20 ADD PUSH1 0x40 MSTORE DUP1 PUSH1 0x0 DUP2 MSTORE POP PUSH2 0x124F JUMP JUMPDEST DUP1 PUSH2 0x16ED DUP5 PUSH2 0x20A7 JUMP JUMPDEST PUSH1 0xE PUSH1 0x40 MLOAD PUSH1 0x20 ADD PUSH2 0x1701 SWAP4 SWAP3 SWAP2 SWAP1 PUSH2 0x2B3E JUMP JUMPDEST PUSH1 0x40 MLOAD PUSH1 0x20 DUP2 DUP4 SUB SUB DUP2 MSTORE SWAP1 PUSH1 0x40 MSTORE SWAP4 SWAP3 POP POP POP JUMP JUMPDEST PUSH1 0x8 SLOAD PUSH1 0x1 PUSH1 0x1 PUSH1 0xA0 SHL SUB AND CALLER EQ PUSH2 0x1741 JUMPI PUSH1 0x40 MLOAD PUSH3 0x461BCD PUSH1 0xE5 SHL DUP2 MSTORE PUSH1 0x4 ADD PUSH2 0xA99 SWAP1 PUSH2 0x2A4A JUMP JUMPDEST PUSH1 0x13 SSTORE JUMP JUMPDEST DUP3 PUSH1 0x0 DUP2 GT DUP1 ISZERO PUSH2 0x1759 JUMPI POP PUSH1 0x12 SLOAD DUP2 GT ISZERO JUMPDEST PUSH2 0x1775 JUMPI PUSH1 0x40 MLOAD PUSH3 0x461BCD PUSH1 0xE5 SHL DUP2 MSTORE PUSH1 0x4 ADD PUSH2 0xA99 SWAP1 PUSH2 0x2A95 JUMP JUMPDEST PUSH1 0x11 SLOAD DUP2 PUSH2 0x178A PUSH1 0x1 SLOAD PUSH1 0x0 SLOAD SUB PUSH1 0x0 NOT ADD SWAP1 JUMP JUMPDEST PUSH2 0x1794 SWAP2 SWAP1 PUSH2 0x2AD9 JUMP JUMPDEST GT ISZERO PUSH2 0x17B2 JUMPI PUSH1 0x40 MLOAD PUSH3 0x461BCD PUSH1 0xE5 SHL DUP2 MSTORE PUSH1 0x4 ADD PUSH2 0xA99 SWAP1 PUSH2 0x2AF1 JUMP JUMPDEST DUP4 DUP1 PUSH1 0x10 SLOAD PUSH2 0x17C1 SWAP2 SWAP1 PUSH2 0x2B1F JUMP JUMPDEST CALLVALUE LT ISZERO PUSH2 0x1806 JUMPI PUSH1 0x40 MLOAD PUSH3 0x461BCD PUSH1 0xE5 SHL DUP2 MSTORE PUSH1 0x20 PUSH1 0x4 DUP3 ADD MSTORE PUSH1 0x13 PUSH1 0x24 DUP3 ADD MSTORE PUSH19 0x496E73756666696369656E742066756E647321 PUSH1 0x68 SHL PUSH1 0x44 DUP3 ADD MSTORE PUSH1 0x64 ADD PUSH2 0xA99 JUMP JUMPDEST PUSH1 0x14 SLOAD PUSH2 0x100 SWAP1 DIV PUSH1 0xFF AND PUSH2 0x1868 JUMPI PUSH1 0x40 MLOAD PUSH3 0x461BCD PUSH1 0xE5 SHL DUP2 MSTORE PUSH1 0x20 PUSH1 0x4 DUP3 ADD MSTORE PUSH1 0x22 PUSH1 0x24 DUP3 ADD MSTORE PUSH32 0x5468652077686974656C6973742073616C65206973206E6F7420656E61626C65 PUSH1 0x44 DUP3 ADD MSTORE PUSH2 0x6421 PUSH1 0xF0 SHL PUSH1 0x64 DUP3 ADD MSTORE PUSH1 0x84 ADD PUSH2 0xA99 JUMP JUMPDEST CALLER PUSH1 0x0 SWAP1 DUP2 MSTORE PUSH1 0xC PUSH1 0x20 MSTORE PUSH1 0x40 SWAP1 KECCAK256 SLOAD PUSH1 0xFF AND DUP1 PUSH2 0x1896 JUMPI POP CALLER PUSH1 0x0 SWAP1 DUP2 MSTORE PUSH1 0xB PUSH1 0x20 MSTORE PUSH1 0x40 SWAP1 KECCAK256 SLOAD PUSH1 0xFF AND ISZERO JUMPDEST PUSH2 0x18E2 JUMPI PUSH1 0x40 MLOAD PUSH3 0x461BCD PUSH1 0xE5 SHL DUP2 MSTORE PUSH1 0x20 PUSH1 0x4 DUP3 ADD MSTORE PUSH1 0x18 PUSH1 0x24 DUP3 ADD MSTORE PUSH32 0x4164647265737320616C726561647920636C61696D6564210000000000000000 PUSH1 0x44 DUP3 ADD MSTORE PUSH1 0x64 ADD PUSH2 0xA99 JUMP JUMPDEST PUSH1 0x40 MLOAD PUSH12 0xFFFFFFFFFFFFFFFFFFFFFFFF NOT CALLER PUSH1 0x60 SHL AND PUSH1 0x20 DUP3 ADD MSTORE PUSH1 0x0 SWAP1 PUSH1 0x34 ADD PUSH1 0x40 MLOAD PUSH1 0x20 DUP2 DUP4 SUB SUB DUP2 MSTORE SWAP1 PUSH1 0x40 MSTORE DUP1 MLOAD SWAP1 PUSH1 0x20 ADD KECCAK256 SWAP1 POP PUSH2 0x195C DUP6 DUP6 DUP1 DUP1 PUSH1 0x20 MUL PUSH1 0x20 ADD PUSH1 0x40 MLOAD SWAP1 DUP2 ADD PUSH1 0x40 MSTORE DUP1 SWAP4 SWAP3 SWAP2 SWAP1 DUP2 DUP2 MSTORE PUSH1 0x20 ADD DUP4 DUP4 PUSH1 0x20 MUL DUP1 DUP3 DUP5 CALLDATACOPY PUSH1 0x0 SWAP3 ADD SWAP2 SWAP1 SWAP2 MSTORE POP POP PUSH1 0xA SLOAD SWAP2 POP DUP5 SWAP1 POP PUSH2 0x21A4 JUMP JUMPDEST PUSH2 0x1999 JUMPI PUSH1 0x40 MLOAD PUSH3 0x461BCD PUSH1 0xE5 SHL DUP2 MSTORE PUSH1 0x20 PUSH1 0x4 DUP3 ADD MSTORE PUSH1 0xE PUSH1 0x24 DUP3 ADD MSTORE PUSH14 0x496E76616C69642070726F6F6621 PUSH1 0x90 SHL PUSH1 0x44 DUP3 ADD MSTORE PUSH1 0x64 ADD PUSH2 0xA99 JUMP JUMPDEST PUSH1 0x0 PUSH2 0x19A4 CALLER PUSH2 0xE44 JUMP JUMPDEST SWAP1 POP PUSH1 0x13 SLOAD DUP2 LT PUSH2 0x19B4 JUMPI PUSH1 0x0 DUP1 REVERT JUMPDEST CALLER PUSH1 0x0 DUP2 DUP2 MSTORE PUSH1 0xB PUSH1 0x20 MSTORE PUSH1 0x40 SWAP1 KECCAK256 DUP1 SLOAD PUSH1 0xFF NOT AND PUSH1 0x1 OR SWAP1 SSTORE PUSH2 0x19D8 SWAP1 DUP9 PUSH2 0x1F86 JUMP JUMPDEST POP POP POP POP POP POP POP JUMP JUMPDEST PUSH1 0x8 SLOAD PUSH1 0x1 PUSH1 0x1 PUSH1 0xA0 SHL SUB AND CALLER EQ PUSH2 0x1A0B JUMPI PUSH1 0x40 MLOAD PUSH3 0x461BCD PUSH1 0xE5 SHL DUP2 MSTORE PUSH1 0x4 ADD PUSH2 0xA99 SWAP1 PUSH2 0x2A4A JUMP JUMPDEST PUSH1 0x14 DUP1 SLOAD SWAP2 ISZERO ISZERO PUSH3 0x10000 MUL PUSH3 0xFF0000 NOT SWAP1 SWAP3 AND SWAP2 SWAP1 SWAP2 OR SWAP1 SSTORE JUMP JUMPDEST PUSH1 0x1 PUSH1 0x1 PUSH1 0xA0 SHL SUB SWAP2 DUP3 AND PUSH1 0x0 SWAP1 DUP2 MSTORE PUSH1 0x7 PUSH1 0x20 SWAP1 DUP2 MSTORE PUSH1 0x40 DUP1 DUP4 KECCAK256 SWAP4 SWAP1 SWAP5 AND DUP3 MSTORE SWAP2 SWAP1 SWAP2 MSTORE KECCAK256 SLOAD PUSH1 0xFF AND SWAP1 JUMP JUMPDEST DUP2 PUSH1 0x0 DUP2 GT DUP1 ISZERO PUSH2 0x1A68 JUMPI POP PUSH1 0x12 SLOAD DUP2 GT ISZERO JUMPDEST PUSH2 0x1A84 JUMPI PUSH1 0x40 MLOAD PUSH3 0x461BCD PUSH1 0xE5 SHL DUP2 MSTORE PUSH1 0x4 ADD PUSH2 0xA99 SWAP1 PUSH2 0x2A95 JUMP JUMPDEST PUSH1 0x11 SLOAD DUP2 PUSH2 0x1A99 PUSH1 0x1 SLOAD PUSH1 0x0 SLOAD SUB PUSH1 0x0 NOT ADD SWAP1 JUMP JUMPDEST PUSH2 0x1AA3 SWAP2 SWAP1 PUSH2 0x2AD9 JUMP JUMPDEST GT ISZERO PUSH2 0x1AC1 JUMPI PUSH1 0x40 MLOAD PUSH3 0x461BCD PUSH1 0xE5 SHL DUP2 MSTORE PUSH1 0x4 ADD PUSH2 0xA99 SWAP1 PUSH2 0x2AF1 JUMP JUMPDEST PUSH1 0x8 SLOAD PUSH1 0x1 PUSH1 0x1 PUSH1 0xA0 SHL SUB AND CALLER EQ PUSH2 0x1AEB JUMPI PUSH1 0x40 MLOAD PUSH3 0x461BCD PUSH1 0xE5 SHL DUP2 MSTORE PUSH1 0x4 ADD PUSH2 0xA99 SWAP1 PUSH2 0x2A4A JUMP JUMPDEST PUSH2 0xA6A DUP3 DUP5 PUSH2 0x1F86 JUMP JUMPDEST PUSH1 0x8 SLOAD PUSH1 0x1 PUSH1 0x1 PUSH1 0xA0 SHL SUB AND CALLER EQ PUSH2 0x1B1F JUMPI PUSH1 0x40 MLOAD PUSH3 0x461BCD PUSH1 0xE5 SHL DUP2 MSTORE PUSH1 0x4 ADD PUSH2 0xA99 SWAP1 PUSH2 0x2A4A JUMP JUMPDEST PUSH1 0x1 PUSH1 0x1 PUSH1 0xA0 SHL SUB DUP2 AND PUSH2 0x1B84 JUMPI PUSH1 0x40 MLOAD PUSH3 0x461BCD PUSH1 0xE5 SHL DUP2 MSTORE PUSH1 0x20 PUSH1 0x4 DUP3 ADD MSTORE PUSH1 0x26 PUSH1 0x24 DUP3 ADD MSTORE PUSH32 0x4F776E61626C653A206E6577206F776E657220697320746865207A65726F2061 PUSH1 0x44 DUP3 ADD MSTORE PUSH6 0x646472657373 PUSH1 0xD0 SHL PUSH1 0x64 DUP3 ADD MSTORE PUSH1 0x84 ADD PUSH2 0xA99 JUMP JUMPDEST PUSH2 0x1B8D DUP2 PUSH2 0x1F34 JUMP JUMPDEST POP JUMP JUMPDEST PUSH1 0x0 DUP2 PUSH1 0x1 GT ISZERO DUP1 ISZERO PUSH2 0x1BA4 JUMPI POP PUSH1 0x0 SLOAD DUP3 LT JUMPDEST DUP1 ISZERO PUSH2 0x90C JUMPI POP POP PUSH1 0x0 SWAP1 DUP2 MSTORE PUSH1 0x4 PUSH1 0x20 MSTORE PUSH1 0x40 SWAP1 KECCAK256 SLOAD PUSH1 0x1 PUSH1 0xE0 SHL SWAP1 DIV PUSH1 0xFF AND ISZERO SWAP1 JUMP JUMPDEST PUSH1 0x0 DUP3 DUP2 MSTORE PUSH1 0x6 PUSH1 0x20 MSTORE PUSH1 0x40 DUP1 DUP3 KECCAK256 DUP1 SLOAD PUSH1 0x1 PUSH1 0x1 PUSH1 0xA0 SHL SUB NOT AND PUSH1 0x1 PUSH1 0x1 PUSH1 0xA0 SHL SUB DUP8 DUP2 AND SWAP2 DUP3 OR SWAP1 SWAP3 SSTORE SWAP2 MLOAD DUP6 SWAP4 SWAP2 DUP6 AND SWAP2 PUSH32 0x8C5BE1E5EBEC7D5BD14F71427D1E84F3DD0314C0F7B2291E5B200AC8C7C3B925 SWAP2 LOG4 POP POP POP JUMP JUMPDEST PUSH1 0x0 PUSH2 0x1C30 DUP3 PUSH2 0x1E12 JUMP JUMPDEST SWAP1 POP DUP4 PUSH1 0x1 PUSH1 0x1 PUSH1 0xA0 SHL SUB AND DUP2 PUSH1 0x0 ADD MLOAD PUSH1 0x1 PUSH1 0x1 PUSH1 0xA0 SHL SUB AND EQ PUSH2 0x1C67 JUMPI PUSH1 0x40 MLOAD PUSH3 0xA11481 PUSH1 0xE8 SHL DUP2 MSTORE PUSH1 0x4 ADD PUSH1 0x40 MLOAD DUP1 SWAP2 SUB SWAP1 REVERT JUMPDEST PUSH1 0x0 CALLER PUSH1 0x1 PUSH1 0x1 PUSH1 0xA0 SHL SUB DUP7 AND EQ DUP1 PUSH2 0x1C85 JUMPI POP PUSH2 0x1C85 DUP6 CALLER PUSH2 0x1A27 JUMP JUMPDEST DUP1 PUSH2 0x1CA0 JUMPI POP CALLER PUSH2 0x1C95 DUP5 PUSH2 0x9A4 JUMP JUMPDEST PUSH1 0x1 PUSH1 0x1 PUSH1 0xA0 SHL SUB AND EQ JUMPDEST SWAP1 POP DUP1 PUSH2 0x1CC0 JUMPI PUSH1 0x40 MLOAD PUSH4 0x2CE44B5F PUSH1 0xE1 SHL DUP2 MSTORE PUSH1 0x4 ADD PUSH1 0x40 MLOAD DUP1 SWAP2 SUB SWAP1 REVERT JUMPDEST PUSH1 0x1 PUSH1 0x1 PUSH1 0xA0 SHL SUB DUP5 AND PUSH2 0x1CE7 JUMPI PUSH1 0x40 MLOAD PUSH4 0x3A954ECD PUSH1 0xE2 SHL DUP2 MSTORE PUSH1 0x4 ADD PUSH1 0x40 MLOAD DUP1 SWAP2 SUB SWAP1 REVERT JUMPDEST PUSH2 0x1CF3 PUSH1 0x0 DUP5 DUP8 PUSH2 0x1BC9 JUMP JUMPDEST PUSH1 0x1 PUSH1 0x1 PUSH1 0xA0 SHL SUB DUP6 DUP2 AND PUSH1 0x0 SWAP1 DUP2 MSTORE PUSH1 0x5 PUSH1 0x20 SWAP1 DUP2 MSTORE PUSH1 0x40 DUP1 DUP4 KECCAK256 DUP1 SLOAD PUSH8 0xFFFFFFFFFFFFFFFF NOT DUP1 DUP3 AND PUSH1 0x1 PUSH1 0x1 PUSH1 0x40 SHL SUB SWAP3 DUP4 AND PUSH1 0x0 NOT ADD DUP4 AND OR SWAP1 SWAP3 SSTORE DUP10 DUP7 AND DUP1 DUP7 MSTORE DUP4 DUP7 KECCAK256 DUP1 SLOAD SWAP4 DUP5 AND SWAP4 DUP4 AND PUSH1 0x1 SWAP1 DUP2 ADD DUP5 AND SWAP5 SWAP1 SWAP5 OR SWAP1 SSTORE DUP10 DUP7 MSTORE PUSH1 0x4 SWAP1 SWAP5 MSTORE DUP3 DUP6 KECCAK256 DUP1 SLOAD PUSH1 0x1 PUSH1 0x1 PUSH1 0xE0 SHL SUB NOT AND SWAP1 SWAP5 OR PUSH1 0x1 PUSH1 0xA0 SHL TIMESTAMP SWAP1 SWAP3 AND SWAP2 SWAP1 SWAP2 MUL OR DUP4 SSTORE DUP8 ADD DUP1 DUP5 MSTORE SWAP3 KECCAK256 DUP1 SLOAD SWAP2 SWAP4 SWAP1 SWAP2 AND PUSH2 0x1DC7 JUMPI PUSH1 0x0 SLOAD DUP3 EQ PUSH2 0x1DC7 JUMPI DUP1 SLOAD PUSH1 0x20 DUP7 ADD MLOAD PUSH1 0x1 PUSH1 0x1 PUSH1 0x40 SHL SUB AND PUSH1 0x1 PUSH1 0xA0 SHL MUL PUSH1 0x1 PUSH1 0x1 PUSH1 0xE0 SHL SUB NOT SWAP1 SWAP2 AND PUSH1 0x1 PUSH1 0x1 PUSH1 0xA0 SHL SUB DUP11 AND OR OR DUP2 SSTORE JUMPDEST POP POP POP DUP3 DUP5 PUSH1 0x1 PUSH1 0x1 PUSH1 0xA0 SHL SUB AND DUP7 PUSH1 0x1 PUSH1 0x1 PUSH1 0xA0 SHL SUB AND PUSH32 0xDDF252AD1BE2C89B69C2B068FC378DAA952BA7F163C4A11628F55A4DF523B3EF PUSH1 0x40 MLOAD PUSH1 0x40 MLOAD DUP1 SWAP2 SUB SWAP1 LOG4 POP POP POP POP POP JUMP JUMPDEST PUSH1 0x40 DUP1 MLOAD PUSH1 0x60 DUP2 ADD DUP3 MSTORE PUSH1 0x0 DUP1 DUP3 MSTORE PUSH1 0x20 DUP3 ADD DUP2 SWAP1 MSTORE SWAP2 DUP2 ADD SWAP2 SWAP1 SWAP2 MSTORE DUP2 DUP1 PUSH1 0x1 GT PUSH2 0x1F1B JUMPI PUSH1 0x0 SLOAD DUP2 LT ISZERO PUSH2 0x1F1B JUMPI PUSH1 0x0 DUP2 DUP2 MSTORE PUSH1 0x4 PUSH1 0x20 SWAP1 DUP2 MSTORE PUSH1 0x40 SWAP2 DUP3 SWAP1 KECCAK256 DUP3 MLOAD PUSH1 0x60 DUP2 ADD DUP5 MSTORE SWAP1 SLOAD PUSH1 0x1 PUSH1 0x1 PUSH1 0xA0 SHL SUB DUP2 AND DUP3 MSTORE PUSH1 0x1 PUSH1 0xA0 SHL DUP2 DIV PUSH1 0x1 PUSH1 0x1 PUSH1 0x40 SHL SUB AND SWAP3 DUP3 ADD SWAP3 SWAP1 SWAP3 MSTORE PUSH1 0x1 PUSH1 0xE0 SHL SWAP1 SWAP2 DIV PUSH1 0xFF AND ISZERO ISZERO SWAP2 DUP2 ADD DUP3 SWAP1 MSTORE SWAP1 PUSH2 0x1F19 JUMPI DUP1 MLOAD PUSH1 0x1 PUSH1 0x1 PUSH1 0xA0 SHL SUB AND ISZERO PUSH2 0x1EB0 JUMPI SWAP4 SWAP3 POP POP POP JUMP JUMPDEST POP PUSH1 0x0 NOT ADD PUSH1 0x0 DUP2 DUP2 MSTORE PUSH1 0x4 PUSH1 0x20 SWAP1 DUP2 MSTORE PUSH1 0x40 SWAP2 DUP3 SWAP1 KECCAK256 DUP3 MLOAD PUSH1 0x60 DUP2 ADD DUP5 MSTORE SWAP1 SLOAD PUSH1 0x1 PUSH1 0x1 PUSH1 0xA0 SHL SUB DUP2 AND DUP1 DUP4 MSTORE PUSH1 0x1 PUSH1 0xA0 SHL DUP3 DIV PUSH1 0x1 PUSH1 0x1 PUSH1 0x40 SHL SUB AND SWAP4 DUP4 ADD SWAP4 SWAP1 SWAP4 MSTORE PUSH1 0x1 PUSH1 0xE0 SHL SWAP1 DIV PUSH1 0xFF AND ISZERO ISZERO SWAP3 DUP2 ADD SWAP3 SWAP1 SWAP3 MSTORE ISZERO PUSH2 0x1F14 JUMPI SWAP4 SWAP3 POP POP POP JUMP JUMPDEST PUSH2 0x1EB0 JUMP JUMPDEST POP JUMPDEST PUSH1 0x40 MLOAD PUSH4 0x6F96CDA1 PUSH1 0xE1 SHL DUP2 MSTORE PUSH1 0x4 ADD PUSH1 0x40 MLOAD DUP1 SWAP2 SUB SWAP1 REVERT JUMPDEST PUSH1 0x8 DUP1 SLOAD PUSH1 0x1 PUSH1 0x1 PUSH1 0xA0 SHL SUB DUP4 DUP2 AND PUSH1 0x1 PUSH1 0x1 PUSH1 0xA0 SHL SUB NOT DUP4 AND DUP2 OR SWAP1 SWAP4 SSTORE PUSH1 0x40 MLOAD SWAP2 AND SWAP2 SWAP1 DUP3 SWAP1 PUSH32 0x8BE0079C531659141344CD1FD0A4F28419497F9722A3DAAFE3B4186F6B6457E0 SWAP1 PUSH1 0x0 SWAP1 LOG3 POP POP JUMP JUMPDEST PUSH2 0xAB5 DUP3 DUP3 PUSH1 0x40 MLOAD DUP1 PUSH1 0x20 ADD PUSH1 0x40 MSTORE DUP1 PUSH1 0x0 DUP2 MSTORE POP PUSH2 0x21BA JUMP JUMPDEST PUSH1 0x40 MLOAD PUSH4 0xA85BD01 PUSH1 0xE1 SHL DUP2 MSTORE PUSH1 0x0 SWAP1 PUSH1 0x1 PUSH1 0x1 PUSH1 0xA0 SHL SUB DUP6 AND SWAP1 PUSH4 0x150B7A02 SWAP1 PUSH2 0x1FD5 SWAP1 CALLER SWAP1 DUP10 SWAP1 DUP9 SWAP1 DUP9 SWAP1 PUSH1 0x4 ADD PUSH2 0x2C02 JUMP JUMPDEST PUSH1 0x20 PUSH1 0x40 MLOAD DUP1 DUP4 SUB DUP2 PUSH1 0x0 DUP8 DUP1 EXTCODESIZE ISZERO DUP1 ISZERO PUSH2 0x1FEF JUMPI PUSH1 0x0 DUP1 REVERT JUMPDEST POP GAS CALL SWAP3 POP POP POP DUP1 ISZERO PUSH2 0x201F JUMPI POP PUSH1 0x40 DUP1 MLOAD PUSH1 0x1F RETURNDATASIZE SWAP1 DUP2 ADD PUSH1 0x1F NOT AND DUP3 ADD SWAP1 SWAP3 MSTORE PUSH2 0x201C SWAP2 DUP2 ADD SWAP1 PUSH2 0x2C3F JUMP JUMPDEST PUSH1 0x1 JUMPDEST PUSH2 0x207A JUMPI RETURNDATASIZE DUP1 DUP1 ISZERO PUSH2 0x204D JUMPI PUSH1 0x40 MLOAD SWAP2 POP PUSH1 0x1F NOT PUSH1 0x3F RETURNDATASIZE ADD AND DUP3 ADD PUSH1 0x40 MSTORE RETURNDATASIZE DUP3 MSTORE RETURNDATASIZE PUSH1 0x0 PUSH1 0x20 DUP5 ADD RETURNDATACOPY PUSH2 0x2052 JUMP JUMPDEST PUSH1 0x60 SWAP2 POP JUMPDEST POP DUP1 MLOAD PUSH2 0x2072 JUMPI PUSH1 0x40 MLOAD PUSH4 0x68D2BF6B PUSH1 0xE1 SHL DUP2 MSTORE PUSH1 0x4 ADD PUSH1 0x40 MLOAD DUP1 SWAP2 SUB SWAP1 REVERT JUMPDEST DUP1 MLOAD DUP2 PUSH1 0x20 ADD REVERT JUMPDEST PUSH1 0x1 PUSH1 0x1 PUSH1 0xE0 SHL SUB NOT AND PUSH4 0xA85BD01 PUSH1 0xE1 SHL EQ SWAP1 POP JUMPDEST SWAP5 SWAP4 POP POP POP POP JUMP JUMPDEST PUSH1 0x60 PUSH1 0xD DUP1 SLOAD PUSH2 0x921 SWAP1 PUSH2 0x2A0F JUMP JUMPDEST PUSH1 0x60 DUP2 PUSH2 0x20CB JUMPI POP POP PUSH1 0x40 DUP1 MLOAD DUP1 DUP3 ADD SWAP1 SWAP2 MSTORE PUSH1 0x1 DUP2 MSTORE PUSH1 0x3 PUSH1 0xFC SHL PUSH1 0x20 DUP3 ADD MSTORE SWAP1 JUMP JUMPDEST DUP2 PUSH1 0x0 JUMPDEST DUP2 ISZERO PUSH2 0x20F5 JUMPI DUP1 PUSH2 0x20DF DUP2 PUSH2 0x2C5C JUMP JUMPDEST SWAP2 POP PUSH2 0x20EE SWAP1 POP PUSH1 0xA DUP4 PUSH2 0x2C8D JUMP JUMPDEST SWAP2 POP PUSH2 0x20CF JUMP JUMPDEST PUSH1 0x0 DUP2 PUSH1 0x1 PUSH1 0x1 PUSH1 0x40 SHL SUB DUP2 GT ISZERO PUSH2 0x210F JUMPI PUSH2 0x210F PUSH2 0x259B JUMP JUMPDEST PUSH1 0x40 MLOAD SWAP1 DUP1 DUP3 MSTORE DUP1 PUSH1 0x1F ADD PUSH1 0x1F NOT AND PUSH1 0x20 ADD DUP3 ADD PUSH1 0x40 MSTORE DUP1 ISZERO PUSH2 0x2139 JUMPI PUSH1 0x20 DUP3 ADD DUP2 DUP1 CALLDATASIZE DUP4 CALLDATACOPY ADD SWAP1 POP JUMPDEST POP SWAP1 POP JUMPDEST DUP5 ISZERO PUSH2 0x2090 JUMPI PUSH2 0x214E PUSH1 0x1 DUP4 PUSH2 0x2CA1 JUMP JUMPDEST SWAP2 POP PUSH2 0x215B PUSH1 0xA DUP7 PUSH2 0x2CB8 JUMP JUMPDEST PUSH2 0x2166 SWAP1 PUSH1 0x30 PUSH2 0x2AD9 JUMP JUMPDEST PUSH1 0xF8 SHL DUP2 DUP4 DUP2 MLOAD DUP2 LT PUSH2 0x217B JUMPI PUSH2 0x217B PUSH2 0x2A7F JUMP JUMPDEST PUSH1 0x20 ADD ADD SWAP1 PUSH1 0x1 PUSH1 0x1 PUSH1 0xF8 SHL SUB NOT AND SWAP1 DUP2 PUSH1 0x0 BYTE SWAP1 MSTORE8 POP PUSH2 0x219D PUSH1 0xA DUP7 PUSH2 0x2C8D JUMP JUMPDEST SWAP5 POP PUSH2 0x213D JUMP JUMPDEST PUSH1 0x0 DUP3 PUSH2 0x21B1 DUP6 DUP5 PUSH2 0x237E JUMP JUMPDEST EQ SWAP5 SWAP4 POP POP POP POP JUMP JUMPDEST PUSH1 0x0 SLOAD PUSH1 0x1 PUSH1 0x1 PUSH1 0xA0 SHL SUB DUP5 AND PUSH2 0x21E3 JUMPI PUSH1 0x40 MLOAD PUSH3 0x2E0763 PUSH1 0xE8 SHL DUP2 MSTORE PUSH1 0x4 ADD PUSH1 0x40 MLOAD DUP1 SWAP2 SUB SWAP1 REVERT JUMPDEST DUP3 PUSH2 0x2201 JUMPI PUSH1 0x40 MLOAD PUSH4 0xB562E8DD PUSH1 0xE0 SHL DUP2 MSTORE PUSH1 0x4 ADD PUSH1 0x40 MLOAD DUP1 SWAP2 SUB SWAP1 REVERT JUMPDEST PUSH1 0x1 PUSH1 0x1 PUSH1 0xA0 SHL SUB DUP5 AND PUSH1 0x0 DUP2 DUP2 MSTORE PUSH1 0x5 PUSH1 0x20 SWAP1 DUP2 MSTORE PUSH1 0x40 DUP1 DUP4 KECCAK256 DUP1 SLOAD PUSH16 0xFFFFFFFFFFFFFFFFFFFFFFFFFFFFFFFF NOT DUP2 AND PUSH1 0x1 PUSH1 0x1 PUSH1 0x40 SHL SUB DUP1 DUP4 AND DUP12 ADD DUP2 AND SWAP2 DUP3 OR PUSH9 0x10000000000000000 PUSH8 0xFFFFFFFFFFFFFFFF NOT SWAP1 SWAP5 AND SWAP1 SWAP3 OR DUP4 SWAP1 DIV DUP2 AND DUP12 ADD DUP2 AND SWAP1 SWAP3 MUL OR SWAP1 SWAP2 SSTORE DUP6 DUP5 MSTORE PUSH1 0x4 SWAP1 SWAP3 MSTORE SWAP1 SWAP2 KECCAK256 DUP1 SLOAD PUSH1 0x1 PUSH1 0x1 PUSH1 0xE0 SHL SUB NOT AND DUP4 OR PUSH1 0x1 PUSH1 0xA0 SHL TIMESTAMP SWAP1 SWAP4 AND SWAP3 SWAP1 SWAP3 MUL SWAP2 SWAP1 SWAP2 OR SWAP1 SSTORE DUP2 SWAP1 DUP2 DUP6 ADD SWAP1 EXTCODESIZE ISZERO PUSH2 0x2329 JUMPI JUMPDEST PUSH1 0x40 MLOAD DUP3 SWAP1 PUSH1 0x1 PUSH1 0x1 PUSH1 0xA0 SHL SUB DUP9 AND SWAP1 PUSH1 0x0 SWAP1 PUSH32 0xDDF252AD1BE2C89B69C2B068FC378DAA952BA7F163C4A11628F55A4DF523B3EF SWAP1 DUP3 SWAP1 LOG4 PUSH2 0x22F2 PUSH1 0x0 DUP8 DUP5 DUP1 PUSH1 0x1 ADD SWAP6 POP DUP8 PUSH2 0x1FA0 JUMP JUMPDEST PUSH2 0x230F JUMPI PUSH1 0x40 MLOAD PUSH4 0x68D2BF6B PUSH1 0xE1 SHL DUP2 MSTORE PUSH1 0x4 ADD PUSH1 0x40 MLOAD DUP1 SWAP2 SUB SWAP1 REVERT JUMPDEST DUP1 DUP3 LT PUSH2 0x22A7 JUMPI DUP3 PUSH1 0x0 SLOAD EQ PUSH2 0x2324 JUMPI PUSH1 0x0 DUP1 REVERT JUMPDEST PUSH2 0x236E JUMP JUMPDEST JUMPDEST PUSH1 0x40 MLOAD PUSH1 0x1 DUP4 ADD SWAP3 SWAP1 PUSH1 0x1 PUSH1 0x1 PUSH1 0xA0 SHL SUB DUP9 AND SWAP1 PUSH1 0x0 SWAP1 PUSH32 0xDDF252AD1BE2C89B69C2B068FC378DAA952BA7F163C4A11628F55A4DF523B3EF SWAP1 DUP3 SWAP1 LOG4 DUP1 DUP3 LT PUSH2 0x232A JUMPI JUMPDEST POP PUSH1 0x0 SWAP1 DUP2 SSTORE PUSH2 0x138E SWAP1 DUP6 DUP4 DUP7 DUP5 JUMP JUMPDEST PUSH1 0x0 DUP2 DUP2 JUMPDEST DUP5 MLOAD DUP2 LT ISZERO PUSH2 0xE1D JUMPI PUSH1 0x0 DUP6 DUP3 DUP2 MLOAD DUP2 LT PUSH2 0x23A0 JUMPI PUSH2 0x23A0 PUSH2 0x2A7F JUMP JUMPDEST PUSH1 0x20 MUL PUSH1 0x20 ADD ADD MLOAD SWAP1 POP DUP1 DUP4 GT PUSH2 0x23C6 JUMPI PUSH1 0x0 DUP4 DUP2 MSTORE PUSH1 0x20 DUP3 SWAP1 MSTORE PUSH1 0x40 SWAP1 KECCAK256 SWAP3 POP PUSH2 0x23D7 JUMP JUMPDEST PUSH1 0x0 DUP2 DUP2 MSTORE PUSH1 0x20 DUP5 SWAP1 MSTORE PUSH1 0x40 SWAP1 KECCAK256 SWAP3 POP JUMPDEST POP DUP1 PUSH2 0x23E2 DUP2 PUSH2 0x2C5C JUMP JUMPDEST SWAP2 POP POP PUSH2 0x2383 JUMP JUMPDEST DUP3 DUP1 SLOAD PUSH2 0x23F6 SWAP1 PUSH2 0x2A0F JUMP JUMPDEST SWAP1 PUSH1 0x0 MSTORE PUSH1 0x20 PUSH1 0x0 KECCAK256 SWAP1 PUSH1 0x1F ADD PUSH1 0x20 SWAP1 DIV DUP2 ADD SWAP3 DUP3 PUSH2 0x2418 JUMPI PUSH1 0x0 DUP6 SSTORE PUSH2 0x245E JUMP JUMPDEST DUP3 PUSH1 0x1F LT PUSH2 0x2431 JUMPI DUP1 MLOAD PUSH1 0xFF NOT AND DUP4 DUP1 ADD OR DUP6 SSTORE PUSH2 0x245E JUMP JUMPDEST DUP3 DUP1 ADD PUSH1 0x1 ADD DUP6 SSTORE DUP3 ISZERO PUSH2 0x245E JUMPI SWAP2 DUP3 ADD JUMPDEST DUP3 DUP2 GT ISZERO PUSH2 0x245E JUMPI DUP3 MLOAD DUP3 SSTORE SWAP2 PUSH1 0x20 ADD SWAP2 SWAP1 PUSH1 0x1 ADD SWAP1 PUSH2 0x2443 JUMP JUMPDEST POP PUSH2 0x246A SWAP3 SWAP2 POP PUSH2 0x246E JUMP JUMPDEST POP SWAP1 JUMP JUMPDEST JUMPDEST DUP1 DUP3 GT ISZERO PUSH2 0x246A JUMPI PUSH1 0x0 DUP2 SSTORE PUSH1 0x1 ADD PUSH2 0x246F JUMP JUMPDEST PUSH1 0x1 PUSH1 0x1 PUSH1 0xE0 SHL SUB NOT DUP2 AND DUP2 EQ PUSH2 0x1B8D JUMPI PUSH1 0x0 DUP1 REVERT JUMPDEST PUSH1 0x0 PUSH1 0x20 DUP3 DUP5 SUB SLT ISZERO PUSH2 0x24AB JUMPI PUSH1 0x0 DUP1 REVERT JUMPDEST DUP2 CALLDATALOAD PUSH2 0x124F DUP2 PUSH2 0x2483 JUMP JUMPDEST PUSH1 0x0 JUMPDEST DUP4 DUP2 LT ISZERO PUSH2 0x24D1 JUMPI DUP2 DUP2 ADD MLOAD DUP4 DUP3 ADD MSTORE PUSH1 0x20 ADD PUSH2 0x24B9 JUMP JUMPDEST DUP4 DUP2 GT ISZERO PUSH2 0x138E JUMPI POP POP PUSH1 0x0 SWAP2 ADD MSTORE JUMP JUMPDEST PUSH1 0x0 DUP2 MLOAD DUP1 DUP5 MSTORE PUSH2 0x24FA DUP2 PUSH1 0x20 DUP7 ADD PUSH1 0x20 DUP7 ADD PUSH2 0x24B6 JUMP JUMPDEST PUSH1 0x1F ADD PUSH1 0x1F NOT AND SWAP3 SWAP1 SWAP3 ADD PUSH1 0x20 ADD SWAP3 SWAP2 POP POP JUMP JUMPDEST PUSH1 0x20 DUP2 MSTORE PUSH1 0x0 PUSH2 0x124F PUSH1 0x20 DUP4 ADD DUP5 PUSH2 0x24E2 JUMP JUMPDEST DUP1 CALLDATALOAD PUSH1 0x1 PUSH1 0x1 PUSH1 0xA0 SHL SUB DUP2 AND DUP2 EQ PUSH2 0x2538 JUMPI PUSH1 0x0 DUP1 REVERT JUMPDEST SWAP2 SWAP1 POP JUMP JUMPDEST PUSH1 0x0 PUSH1 0x20 DUP3 DUP5 SUB SLT ISZERO PUSH2 0x254F JUMPI PUSH1 0x0 DUP1 REVERT JUMPDEST PUSH2 0x124F DUP3 PUSH2 0x2521 JUMP JUMPDEST PUSH1 0x0 PUSH1 0x20 DUP3 DUP5 SUB SLT ISZERO PUSH2 0x256A JUMPI PUSH1 0x0 DUP1 REVERT JUMPDEST POP CALLDATALOAD SWAP2 SWAP1 POP JUMP JUMPDEST PUSH1 0x0 DUP1 PUSH1 0x40 DUP4 DUP6 SUB SLT ISZERO PUSH2 0x2584 JUMPI PUSH1 0x0 DUP1 REVERT JUMPDEST PUSH2 0x258D DUP4 PUSH2 0x2521 JUMP JUMPDEST SWAP5 PUSH1 0x20 SWAP4 SWAP1 SWAP4 ADD CALLDATALOAD SWAP4 POP POP POP JUMP JUMPDEST PUSH4 0x4E487B71 PUSH1 0xE0 SHL PUSH1 0x0 MSTORE PUSH1 0x41 PUSH1 0x4 MSTORE PUSH1 0x24 PUSH1 0x0 REVERT JUMPDEST PUSH1 0x40 MLOAD PUSH1 0x1F DUP3 ADD PUSH1 0x1F NOT AND DUP2 ADD PUSH1 0x1 PUSH1 0x1 PUSH1 0x40 SHL SUB DUP2 GT DUP3 DUP3 LT OR ISZERO PUSH2 0x25D9 JUMPI PUSH2 0x25D9 PUSH2 0x259B JUMP JUMPDEST PUSH1 0x40 MSTORE SWAP2 SWAP1 POP JUMP JUMPDEST PUSH1 0x0 PUSH1 0x1 PUSH1 0x1 PUSH1 0x40 SHL SUB DUP4 GT ISZERO PUSH2 0x25FA JUMPI PUSH2 0x25FA PUSH2 0x259B JUMP JUMPDEST PUSH2 0x260D PUSH1 0x1F DUP5 ADD PUSH1 0x1F NOT AND PUSH1 0x20 ADD PUSH2 0x25B1 JUMP JUMPDEST SWAP1 POP DUP3 DUP2 MSTORE DUP4 DUP4 DUP4 ADD GT ISZERO PUSH2 0x2621 JUMPI PUSH1 0x0 DUP1 REVERT JUMPDEST DUP3 DUP3 PUSH1 0x20 DUP4 ADD CALLDATACOPY PUSH1 0x0 PUSH1 0x20 DUP5 DUP4 ADD ADD MSTORE SWAP4 SWAP3 POP POP POP JUMP JUMPDEST PUSH1 0x0 PUSH1 0x20 DUP3 DUP5 SUB SLT ISZERO PUSH2 0x264A JUMPI PUSH1 0x0 DUP1 REVERT JUMPDEST DUP2 CALLDATALOAD PUSH1 0x1 PUSH1 0x1 PUSH1 0x40 SHL SUB DUP2 GT ISZERO PUSH2 0x2660 JUMPI PUSH1 0x0 DUP1 REVERT JUMPDEST DUP3 ADD PUSH1 0x1F DUP2 ADD DUP5 SGT PUSH2 0x2671 JUMPI PUSH1 0x0 DUP1 REVERT JUMPDEST PUSH2 0x2090 DUP5 DUP3 CALLDATALOAD PUSH1 0x20 DUP5 ADD PUSH2 0x25E1 JUMP JUMPDEST DUP1 CALLDATALOAD DUP1 ISZERO ISZERO DUP2 EQ PUSH2 0x2538 JUMPI PUSH1 0x0 DUP1 REVERT JUMPDEST PUSH1 0x0 PUSH1 0x20 DUP3 DUP5 SUB SLT ISZERO PUSH2 0x26A2 JUMPI PUSH1 0x0 DUP1 REVERT JUMPDEST PUSH2 0x124F DUP3 PUSH2 0x2680 JUMP JUMPDEST PUSH1 0x0 DUP1 PUSH1 0x0 PUSH1 0x60 DUP5 DUP7 SUB SLT ISZERO PUSH2 0x26C0 JUMPI PUSH1 0x0 DUP1 REVERT JUMPDEST PUSH2 0x26C9 DUP5 PUSH2 0x2521 JUMP JUMPDEST SWAP3 POP PUSH2 0x26D7 PUSH1 0x20 DUP6 ADD PUSH2 0x2521 JUMP JUMPDEST SWAP2 POP PUSH1 0x40 DUP5 ADD CALLDATALOAD SWAP1 POP SWAP3 POP SWAP3 POP SWAP3 JUMP JUMPDEST PUSH1 0x0 PUSH1 0x20 DUP1 DUP4 DUP6 SUB SLT ISZERO PUSH2 0x26FA JUMPI PUSH1 0x0 DUP1 REVERT JUMPDEST DUP3 CALLDATALOAD PUSH1 0x1 PUSH1 0x1 PUSH1 0x40 SHL SUB DUP1 DUP3 GT ISZERO PUSH2 0x2711 JUMPI PUSH1 0x0 DUP1 REVERT JUMPDEST DUP2 DUP6 ADD SWAP2 POP DUP6 PUSH1 0x1F DUP4 ADD SLT PUSH2 0x2725 JUMPI PUSH1 0x0 DUP1 REVERT JUMPDEST DUP2 CALLDATALOAD DUP2 DUP2 GT ISZERO PUSH2 0x2737 JUMPI PUSH2 0x2737 PUSH2 0x259B JUMP JUMPDEST DUP1 PUSH1 0x5 SHL SWAP2 POP PUSH2 0x2748 DUP5 DUP4 ADD PUSH2 0x25B1 JUMP JUMPDEST DUP2 DUP2 MSTORE SWAP2 DUP4 ADD DUP5 ADD SWAP2 DUP5 DUP2 ADD SWAP1 DUP9 DUP5 GT ISZERO PUSH2 0x2762 JUMPI PUSH1 0x0 DUP1 REVERT JUMPDEST SWAP4 DUP6 ADD SWAP4 JUMPDEST DUP4 DUP6 LT ISZERO PUSH2 0x2780 JUMPI DUP5 CALLDATALOAD DUP3 MSTORE SWAP4 DUP6 ADD SWAP4 SWAP1 DUP6 ADD SWAP1 PUSH2 0x2767 JUMP JUMPDEST SWAP9 SWAP8 POP POP POP POP POP POP POP POP JUMP JUMPDEST PUSH1 0x20 DUP1 DUP3 MSTORE DUP3 MLOAD DUP3 DUP3 ADD DUP2 SWAP1 MSTORE PUSH1 0x0 SWAP2 SWAP1 DUP5 DUP3 ADD SWAP1 PUSH1 0x40 DUP6 ADD SWAP1 DUP5 JUMPDEST DUP2 DUP2 LT ISZERO PUSH2 0x1075 JUMPI PUSH2 0x27E3 DUP4 DUP6 MLOAD DUP1 MLOAD PUSH1 0x1 PUSH1 0x1 PUSH1 0xA0 SHL SUB AND DUP3 MSTORE PUSH1 0x20 DUP1 DUP3 ADD MLOAD PUSH1 0x1 PUSH1 0x1 PUSH1 0x40 SHL SUB AND SWAP1 DUP4 ADD MSTORE PUSH1 0x40 SWAP1 DUP2 ADD MLOAD ISZERO ISZERO SWAP2 ADD MSTORE JUMP JUMPDEST SWAP3 DUP5 ADD SWAP3 PUSH1 0x60 SWAP3 SWAP1 SWAP3 ADD SWAP2 PUSH1 0x1 ADD PUSH2 0x27A8 JUMP JUMPDEST PUSH1 0x20 DUP1 DUP3 MSTORE DUP3 MLOAD DUP3 DUP3 ADD DUP2 SWAP1 MSTORE PUSH1 0x0 SWAP2 SWAP1 DUP5 DUP3 ADD SWAP1 PUSH1 0x40 DUP6 ADD SWAP1 DUP5 JUMPDEST DUP2 DUP2 LT ISZERO PUSH2 0x1075 JUMPI DUP4 MLOAD DUP4 MSTORE SWAP3 DUP5 ADD SWAP3 SWAP2 DUP5 ADD SWAP2 PUSH1 0x1 ADD PUSH2 0x2812 JUMP JUMPDEST PUSH1 0x0 DUP1 PUSH1 0x0 PUSH1 0x60 DUP5 DUP7 SUB SLT ISZERO PUSH2 0x2843 JUMPI PUSH1 0x0 DUP1 REVERT JUMPDEST PUSH2 0x284C DUP5 PUSH2 0x2521 JUMP JUMPDEST SWAP6 PUSH1 0x20 DUP6 ADD CALLDATALOAD SWAP6 POP PUSH1 0x40 SWAP1 SWAP5 ADD CALLDATALOAD SWAP4 SWAP3 POP POP POP JUMP JUMPDEST PUSH1 0x0 DUP1 PUSH1 0x40 DUP4 DUP6 SUB SLT ISZERO PUSH2 0x2874 JUMPI PUSH1 0x0 DUP1 REVERT JUMPDEST PUSH2 0x287D DUP4 PUSH2 0x2521 JUMP JUMPDEST SWAP2 POP PUSH2 0x288B PUSH1 0x20 DUP5 ADD PUSH2 0x2680 JUMP JUMPDEST SWAP1 POP SWAP3 POP SWAP3 SWAP1 POP JUMP JUMPDEST PUSH1 0x0 DUP1 PUSH1 0x0 DUP1 PUSH1 0x80 DUP6 DUP8 SUB SLT ISZERO PUSH2 0x28AA JUMPI PUSH1 0x0 DUP1 REVERT JUMPDEST PUSH2 0x28B3 DUP6 PUSH2 0x2521 JUMP JUMPDEST SWAP4 POP PUSH2 0x28C1 PUSH1 0x20 DUP7 ADD PUSH2 0x2521 JUMP JUMPDEST SWAP3 POP PUSH1 0x40 DUP6 ADD CALLDATALOAD SWAP2 POP PUSH1 0x60 DUP6 ADD CALLDATALOAD PUSH1 0x1 PUSH1 0x1 PUSH1 0x40 SHL SUB DUP2 GT ISZERO PUSH2 0x28E3 JUMPI PUSH1 0x0 DUP1 REVERT JUMPDEST DUP6 ADD PUSH1 0x1F DUP2 ADD DUP8 SGT PUSH2 0x28F4 JUMPI PUSH1 0x0 DUP1 REVERT JUMPDEST PUSH2 0x2903 DUP8 DUP3 CALLDATALOAD PUSH1 0x20 DUP5 ADD PUSH2 0x25E1 JUMP JUMPDEST SWAP2 POP POP SWAP3 SWAP6 SWAP2 SWAP5 POP SWAP3 POP JUMP JUMPDEST DUP2 MLOAD PUSH1 0x1 PUSH1 0x1 PUSH1 0xA0 SHL SUB AND DUP2 MSTORE PUSH1 0x20 DUP1 DUP4 ADD MLOAD PUSH1 0x1 PUSH1 0x1 PUSH1 0x40 SHL SUB AND SWAP1 DUP3 ADD MSTORE PUSH1 0x40 DUP1 DUP4 ADD MLOAD ISZERO ISZERO SWAP1 DUP3 ADD MSTORE PUSH1 0x60 DUP2 ADD PUSH2 0x90C JUMP JUMPDEST PUSH1 0x0 DUP1 PUSH1 0x0 PUSH1 0x40 DUP5 DUP7 SUB SLT ISZERO PUSH2 0x2959 JUMPI PUSH1 0x0 DUP1 REVERT JUMPDEST DUP4 CALLDATALOAD SWAP3 POP PUSH1 0x20 DUP5 ADD CALLDATALOAD PUSH1 0x1 PUSH1 0x1 PUSH1 0x40 SHL SUB DUP1 DUP3 GT ISZERO PUSH2 0x2977 JUMPI PUSH1 0x0 DUP1 REVERT JUMPDEST DUP2 DUP7 ADD SWAP2 POP DUP7 PUSH1 0x1F DUP4 ADD SLT PUSH2 0x298B JUMPI PUSH1 0x0 DUP1 REVERT JUMPDEST DUP2 CALLDATALOAD DUP2 DUP2 GT ISZERO PUSH2 0x299A JUMPI PUSH1 0x0 DUP1 REVERT JUMPDEST DUP8 PUSH1 0x20 DUP3 PUSH1 0x5 SHL DUP6 ADD ADD GT ISZERO PUSH2 0x29AF JUMPI PUSH1 0x0 DUP1 REVERT JUMPDEST PUSH1 0x20 DUP4 ADD SWAP5 POP DUP1 SWAP4 POP POP POP POP SWAP3 POP SWAP3 POP SWAP3 JUMP JUMPDEST PUSH1 0x0 DUP1 PUSH1 0x40 DUP4 DUP6 SUB SLT ISZERO PUSH2 0x29D5 JUMPI PUSH1 0x0 DUP1 REVERT JUMPDEST PUSH2 0x29DE DUP4 PUSH2 0x2521 JUMP JUMPDEST SWAP2 POP PUSH2 0x288B PUSH1 0x20 DUP5 ADD PUSH2 0x2521 JUMP JUMPDEST PUSH1 0x0 DUP1 PUSH1 0x40 DUP4 DUP6 SUB SLT ISZERO PUSH2 0x29FF JUMPI PUSH1 0x0 DUP1 REVERT JUMPDEST DUP3 CALLDATALOAD SWAP2 POP PUSH2 0x288B PUSH1 0x20 DUP5 ADD PUSH2 0x2521 JUMP JUMPDEST PUSH1 0x1 DUP2 DUP2 SHR SWAP1 DUP3 AND DUP1 PUSH2 0x2A23 JUMPI PUSH1 0x7F DUP3 AND SWAP2 POP JUMPDEST PUSH1 0x20 DUP3 LT DUP2 EQ ISZERO PUSH2 0x2A44 JUMPI PUSH4 0x4E487B71 PUSH1 0xE0 SHL PUSH1 0x0 MSTORE PUSH1 0x22 PUSH1 0x4 MSTORE PUSH1 0x24 PUSH1 0x0 REVERT JUMPDEST POP SWAP2 SWAP1 POP JUMP JUMPDEST PUSH1 0x20 DUP1 DUP3 MSTORE DUP2 DUP2 ADD MSTORE PUSH32 0x4F776E61626C653A2063616C6C6572206973206E6F7420746865206F776E6572 PUSH1 0x40 DUP3 ADD MSTORE PUSH1 0x60 ADD SWAP1 JUMP JUMPDEST PUSH4 0x4E487B71 PUSH1 0xE0 SHL PUSH1 0x0 MSTORE PUSH1 0x32 PUSH1 0x4 MSTORE PUSH1 0x24 PUSH1 0x0 REVERT JUMPDEST PUSH1 0x20 DUP1 DUP3 MSTORE PUSH1 0x14 SWAP1 DUP3 ADD MSTORE PUSH20 0x496E76616C6964206D696E7420616D6F756E7421 PUSH1 0x60 SHL PUSH1 0x40 DUP3 ADD MSTORE PUSH1 0x60 ADD SWAP1 JUMP JUMPDEST PUSH4 0x4E487B71 PUSH1 0xE0 SHL PUSH1 0x0 MSTORE PUSH1 0x11 PUSH1 0x4 MSTORE PUSH1 0x24 PUSH1 0x0 REVERT JUMPDEST PUSH1 0x0 DUP3 NOT DUP3 GT ISZERO PUSH2 0x2AEC JUMPI PUSH2 0x2AEC PUSH2 0x2AC3 JUMP JUMPDEST POP ADD SWAP1 JUMP JUMPDEST PUSH1 0x20 DUP1 DUP3 MSTORE PUSH1 0x14 SWAP1 DUP3 ADD MSTORE PUSH20 0x4D617820737570706C7920657863656564656421 PUSH1 0x60 SHL PUSH1 0x40 DUP3 ADD MSTORE PUSH1 0x60 ADD SWAP1 JUMP JUMPDEST PUSH1 0x0 DUP2 PUSH1 0x0 NOT DIV DUP4 GT DUP3 ISZERO ISZERO AND ISZERO PUSH2 0x2B39 JUMPI PUSH2 0x2B39 PUSH2 0x2AC3 JUMP JUMPDEST POP MUL SWAP1 JUMP JUMPDEST PUSH1 0x0 DUP5 MLOAD PUSH1 0x20 PUSH2 0x2B51 DUP3 DUP6 DUP4 DUP11 ADD PUSH2 0x24B6 JUMP JUMPDEST DUP6 MLOAD SWAP2 DUP5 ADD SWAP2 PUSH2 0x2B64 DUP2 DUP5 DUP5 DUP11 ADD PUSH2 0x24B6 JUMP JUMPDEST DUP6 SLOAD SWAP3 ADD SWAP2 PUSH1 0x0 SWAP1 PUSH1 0x1 DUP2 DUP2 SHR SWAP1 DUP1 DUP4 AND DUP1 PUSH2 0x2B81 JUMPI PUSH1 0x7F DUP4 AND SWAP3 POP JUMPDEST DUP6 DUP4 LT DUP2 EQ ISZERO PUSH2 0x2B9F JUMPI PUSH4 0x4E487B71 PUSH1 0xE0 SHL DUP6 MSTORE PUSH1 0x22 PUSH1 0x4 MSTORE PUSH1 0x24 DUP6 REVERT JUMPDEST DUP1 DUP1 ISZERO PUSH2 0x2BB3 JUMPI PUSH1 0x1 DUP2 EQ PUSH2 0x2BC4 JUMPI PUSH2 0x2BF1 JUMP JUMPDEST PUSH1 0xFF NOT DUP6 AND DUP9 MSTORE DUP4 DUP9 ADD SWAP6 POP PUSH2 0x2BF1 JUMP JUMPDEST PUSH1 0x0 DUP12 DUP2 MSTORE PUSH1 0x20 SWAP1 KECCAK256 PUSH1 0x0 JUMPDEST DUP6 DUP2 LT ISZERO PUSH2 0x2BE9 JUMPI DUP2 SLOAD DUP11 DUP3 ADD MSTORE SWAP1 DUP5 ADD SWAP1 DUP9 ADD PUSH2 0x2BD0 JUMP JUMPDEST POP POP DUP4 DUP9 ADD SWAP6 POP JUMPDEST POP SWAP4 SWAP12 SWAP11 POP POP POP POP POP POP POP POP POP POP POP JUMP JUMPDEST PUSH1 0x1 PUSH1 0x1 PUSH1 0xA0 SHL SUB DUP6 DUP2 AND DUP3 MSTORE DUP5 AND PUSH1 0x20 DUP3 ADD MSTORE PUSH1 0x40 DUP2 ADD DUP4 SWAP1 MSTORE PUSH1 0x80 PUSH1 0x60 DUP3 ADD DUP2 SWAP1 MSTORE PUSH1 0x0 SWAP1 PUSH2 0x2C35 SWAP1 DUP4 ADD DUP5 PUSH2 0x24E2 JUMP JUMPDEST SWAP7 SWAP6 POP POP POP POP POP POP JUMP JUMPDEST PUSH1 0x0 PUSH1 0x20 DUP3 DUP5 SUB SLT ISZERO PUSH2 0x2C51 JUMPI PUSH1 0x0 DUP1 REVERT JUMPDEST DUP2 MLOAD PUSH2 0x124F DUP2 PUSH2 0x2483 JUMP JUMPDEST PUSH1 0x0 PUSH1 0x0 NOT DUP3 EQ ISZERO PUSH2 0x2C70 JUMPI PUSH2 0x2C70 PUSH2 0x2AC3 JUMP JUMPDEST POP PUSH1 0x1 ADD SWAP1 JUMP JUMPDEST PUSH4 0x4E487B71 PUSH1 0xE0 SHL PUSH1 0x0 MSTORE PUSH1 0x12 PUSH1 0x4 MSTORE PUSH1 0x24 PUSH1 0x0 REVERT JUMPDEST PUSH1 0x0 DUP3 PUSH2 0x2C9C JUMPI PUSH2 0x2C9C PUSH2 0x2C77 JUMP JUMPDEST POP DIV SWAP1 JUMP JUMPDEST PUSH1 0x0 DUP3 DUP3 LT ISZERO PUSH2 0x2CB3 JUMPI PUSH2 0x2CB3 PUSH2 0x2AC3 JUMP JUMPDEST POP SUB SWAP1 JUMP JUMPDEST PUSH1 0x0 DUP3 PUSH2 0x2CC7 JUMPI PUSH2 0x2CC7 PUSH2 0x2C77 JUMP JUMPDEST POP MOD SWAP1 JUMP INVALID LOG2 PUSH5 0x6970667358 0x22 SLT KECCAK256 PUSH26 0x3D774DD370B602A23191E923AD1BB99E7708742CC9C6F7AAE22D ORIGIN PC 0xCF JUMPDEST 0x49 PUSH5 0x736F6C6343 STOP ADDMOD MULMOD STOP CALLER 0x4F PUSH24 0x6E61626C653A2063616C6C6572206973206E6F7420746865 KECCAK256 PUSH16 0x776E6572000000000000000000000000 "
        },
        "methodIdentifiers": {
          "approve(address,uint256)": "095ea7b3",
          "balanceOf(address)": "70a08231",
          "cost()": "13faede6",
          "explicitOwnershipOf(uint256)": "c23dc68f",
          "explicitOwnershipsOf(uint256[])": "5bbb2177",
          "getApproved(uint256)": "081812fc",
          "hiddenMetadataUri()": "a45ba8e7",
          "isApprovedForAll(address,address)": "e985e9c5",
          "maxMintAmountPerTx()": "94354fd0",
          "maxSupply()": "d5abeb01",
          "merkleRoot()": "2eb4a7ab",
          "mint(uint256)": "a0712d68",
          "mintForAddress(uint256,address)": "efbd73f4",
          "name()": "06fdde03",
          "nftPerAddressLimit()": "ba7d2c76",
          "owner()": "8da5cb5b",
          "ownerOf(uint256)": "6352211e",
          "paused()": "5c975abb",
          "renounceOwnership()": "715018a6",
          "revealed()": "51830227",
          "safeTransferFrom(address,address,uint256)": "42842e0e",
          "safeTransferFrom(address,address,uint256,bytes)": "b88d4fde",
          "setApprovalForAll(address,bool)": "a22cb465",
          "setCost(uint256)": "44a0d68a",
          "setHiddenMetadataUri(string)": "4fdd43cb",
          "setMaxMintAmountPerTx(uint256)": "b071401b",
          "setMerkleRoot(bytes32)": "7cb64759",
          "setNftPerAddressLimit(uint256)": "d0eb26b0",
          "setPaused(bool)": "16c38b3c",
          "setRevealed(bool)": "e0a80853",
          "setUriPrefix(string)": "7ec4a659",
          "setUriSuffix(string)": "16ba10e0",
          "setWhitelistException(address)": "43f4251d",
          "setWhitelistMintEnabled(bool)": "b767a098",
          "supportsInterface(bytes4)": "01ffc9a7",
          "symbol()": "95d89b41",
          "tokenURI(uint256)": "c87b56dd",
          "tokensOfOwner(address)": "8462151c",
          "tokensOfOwnerIn(address,uint256,uint256)": "99a2557a",
          "totalSupply()": "18160ddd",
          "transferFrom(address,address,uint256)": "23b872dd",
          "transferOwnership(address)": "f2fde38b",
          "uriPrefix()": "62b99ad4",
          "uriSuffix()": "5503a0e8",
          "whitelistClaimed(address)": "db4bec44",
          "whitelistException(address)": "076fb8be",
          "whitelistMint(uint256,bytes32[])": "d2cab056",
          "whitelistMintEnabled()": "6caede3d",
          "withdraw()": "3ccfd60b"
        }
      }
    }
  }
}